{
  "contractName": "EventCreation",
  "abi": [
    {
      "anonymous": false,
      "inputs": [
        {
          "indexed": false,
          "internalType": "uint256",
          "name": "eventId",
          "type": "uint256"
        },
        {
          "indexed": false,
          "internalType": "string",
          "name": "name",
          "type": "string"
        },
        {
          "indexed": false,
          "internalType": "string",
          "name": "location",
          "type": "string"
        },
        {
          "indexed": false,
          "internalType": "uint256",
          "name": "date",
          "type": "uint256"
        },
        {
          "indexed": false,
          "internalType": "address",
          "name": "host",
          "type": "address"
        }
      ],
      "name": "NewEvent",
      "type": "event"
    },
    {
      "anonymous": false,
      "inputs": [
        {
          "indexed": true,
          "internalType": "address",
          "name": "previousOwner",
          "type": "address"
        },
        {
          "indexed": true,
          "internalType": "address",
          "name": "newOwner",
          "type": "address"
        }
      ],
      "name": "OwnershipTransferred",
      "type": "event"
    },
    {
      "inputs": [
        {
          "internalType": "uint256",
          "name": "",
          "type": "uint256"
        }
      ],
      "name": "events",
      "outputs": [
        {
          "internalType": "bytes32",
          "name": "code",
          "type": "bytes32"
        },
        {
          "internalType": "string",
          "name": "name",
          "type": "string"
        },
        {
          "internalType": "string",
          "name": "location",
          "type": "string"
        },
        {
          "internalType": "uint256",
          "name": "coordinates",
          "type": "uint256"
        },
        {
          "internalType": "uint256",
          "name": "created",
          "type": "uint256"
        },
        {
          "internalType": "uint256",
          "name": "date",
          "type": "uint256"
        },
        {
          "internalType": "uint256",
          "name": "fee",
          "type": "uint256"
        },
        {
          "internalType": "enum PintNight.State",
          "name": "state",
          "type": "uint8"
        },
        {
          "internalType": "enum PintNight.Result",
          "name": "result",
          "type": "uint8"
        }
      ],
      "stateMutability": "view",
      "type": "function"
    },
    {
      "inputs": [],
      "name": "owner",
      "outputs": [
        {
          "internalType": "address",
          "name": "",
          "type": "address"
        }
      ],
      "stateMutability": "view",
      "type": "function"
    },
    {
      "inputs": [],
      "name": "renounceOwnership",
      "outputs": [],
      "stateMutability": "nonpayable",
      "type": "function"
    },
    {
      "inputs": [
        {
          "internalType": "address",
          "name": "newOwner",
          "type": "address"
        }
      ],
      "name": "transferOwnership",
      "outputs": [],
      "stateMutability": "nonpayable",
      "type": "function"
    },
    {
      "inputs": [
        {
          "internalType": "bytes32",
          "name": "_code",
          "type": "bytes32"
        },
        {
          "internalType": "string",
          "name": "_name",
          "type": "string"
        },
        {
          "internalType": "string",
          "name": "_location",
          "type": "string"
        },
        {
          "internalType": "uint256",
          "name": "_coordinates",
          "type": "uint256"
        },
        {
          "internalType": "uint256",
          "name": "_date",
          "type": "uint256"
        }
      ],
      "name": "initEvent",
      "outputs": [],
      "stateMutability": "payable",
      "type": "function"
    },
    {
      "inputs": [
        {
          "internalType": "uint256",
          "name": "_newMinFee",
          "type": "uint256"
        }
      ],
      "name": "setMinFee",
      "outputs": [],
      "stateMutability": "nonpayable",
      "type": "function"
    },
    {
      "inputs": [
        {
          "internalType": "uint256",
          "name": "_newMaxFee",
          "type": "uint256"
        }
      ],
      "name": "setMaxFee",
      "outputs": [],
      "stateMutability": "nonpayable",
      "type": "function"
    },
    {
      "inputs": [],
      "name": "withdrawFees",
      "outputs": [],
      "stateMutability": "nonpayable",
      "type": "function"
    },
    {
      "inputs": [
        {
          "internalType": "uint256",
          "name": "_percentage",
          "type": "uint256"
        }
      ],
      "name": "setOperatingFeePercentage",
      "outputs": [],
      "stateMutability": "nonpayable",
      "type": "function"
    }
  ],
  "bytecode": "0x608060405266038d7ea4c68000600a55662386f26fc10000600b5561012c600c5534801561002c57600080fd5b5061004961003e61004e60201b60201c565b61005660201b60201c565b61011a565b600033905090565b60008060009054906101000a900473ffffffffffffffffffffffffffffffffffffffff169050816000806101000a81548173ffffffffffffffffffffffffffffffffffffffff021916908373ffffffffffffffffffffffffffffffffffffffff1602179055508173ffffffffffffffffffffffffffffffffffffffff168173ffffffffffffffffffffffffffffffffffffffff167f8be0079c531659141344cd1fd0a4f28419497f9722a3daafe3b4186f6b6457e060405160405180910390a35050565b611a76806101296000396000f3fe6080604052600436106100865760003560e01c8063715018a611610059578063715018a6146101395780638da5cb5b146101505780639c5ac2501461017b578063e92af9c714610197578063f2fde38b146101c057610086565b80630b7914301461008b57806331ac9920146100d0578063476343ee146100f9578063710e5d2f14610110575b600080fd5b34801561009757600080fd5b506100b260048036038101906100ad9190610ffb565b6101e9565b6040516100c7999897969594939291906111df565b60405180910390f35b3480156100dc57600080fd5b506100f760048036038101906100f29190610ffb565b610371565b005b34801561010557600080fd5b5061010e6103f7565b005b34801561011c57600080fd5b5061013760048036038101906101329190610ffb565b610528565b005b34801561014557600080fd5b5061014e6105ae565b005b34801561015c57600080fd5b50610165610636565b60405161017291906111c4565b60405180910390f35b61019560048036038101906101909190610f48565b61065f565b005b3480156101a357600080fd5b506101be60048036038101906101b99190610ffb565b6109ba565b005b3480156101cc57600080fd5b506101e760048036038101906101e29190610f1b565b610a92565b005b600281815481106101f957600080fd5b906000526020600020906008020160009150905080600001549080600101805461022290611634565b80601f016020809104026020016040519081016040528092919081815260200182805461024e90611634565b801561029b5780601f106102705761010080835404028352916020019161029b565b820191906000526020600020905b81548152906001019060200180831161027e57829003601f168201915b5050505050908060020180546102b090611634565b80601f01602080910402602001604051908101604052809291908181526020018280546102dc90611634565b80156103295780601f106102fe57610100808354040283529160200191610329565b820191906000526020600020905b81548152906001019060200180831161030c57829003601f168201915b5050505050908060030154908060040154908060050154908060060154908060070160009054906101000a900460ff16908060070160019054906101000a900460ff16905089565b610379610b8a565b73ffffffffffffffffffffffffffffffffffffffff16610397610636565b73ffffffffffffffffffffffffffffffffffffffff16146103ed576040517f08c379a00000000000000000000000000000000000000000000000000000000081526004016103e4906112da565b60405180910390fd5b80600a8190555050565b6103ff610b8a565b73ffffffffffffffffffffffffffffffffffffffff1661041d610636565b73ffffffffffffffffffffffffffffffffffffffff1614610473576040517f08c379a000000000000000000000000000000000000000000000000000000000815260040161046a906112da565b60405180910390fd5b6001543073ffffffffffffffffffffffffffffffffffffffff1631116104ce576040517f08c379a00000000000000000000000000000000000000000000000000000000081526004016104c5906112fa565b60405180910390fd5b6104d6610636565b73ffffffffffffffffffffffffffffffffffffffff166108fc6001549081150290604051600060405180830381858888f1935050505015801561051d573d6000803e3d6000fd5b506000600181905550565b610530610b8a565b73ffffffffffffffffffffffffffffffffffffffff1661054e610636565b73ffffffffffffffffffffffffffffffffffffffff16146105a4576040517f08c379a000000000000000000000000000000000000000000000000000000000815260040161059b906112da565b60405180910390fd5b80600b8190555050565b6105b6610b8a565b73ffffffffffffffffffffffffffffffffffffffff166105d4610636565b73ffffffffffffffffffffffffffffffffffffffff161461062a576040517f08c379a0000000000000000000000000000000000000000000000000000000008152600401610621906112da565b60405180910390fd5b6106346000610b92565b565b60008060009054906101000a900473ffffffffffffffffffffffffffffffffffffffff16905090565b6301dfe2004261066f919061144d565b81106106b0576040517f08c379a00000000000000000000000000000000000000000000000000000000081526004016106a79061133a565b60405180910390fd5b61a8c0426106be919061144d565b811015610700576040517f08c379a00000000000000000000000000000000000000000000000000000000081526004016106f7906112ba565b60405180910390fd5b600a54341015610745576040517f08c379a000000000000000000000000000000000000000000000000000000000815260040161073c9061135a565b60405180910390fd5b600b5434111561078a576040517f08c379a00000000000000000000000000000000000000000000000000000000081526004016107819061129a565b60405180910390fd5b6000604051806101200160405280878152602001868152602001858152602001848152602001428152602001838152602001348152602001600060028111156107d6576107d56116f5565b5b8152602001600060028111156107ef576107ee6116f5565b5b81525090506002819080600181540180825580915050600190039060005260206000209060080201600090919091909150600082015181600001556020820151816001019080519060200190610846929190610dc9565b506040820151816002019080519060200190610863929190610dc9565b50606082015181600301556080820151816004015560a0820151816005015560c0820151816006015560e08201518160070160006101000a81548160ff021916908360028111156108b7576108b66116f5565b5b02179055506101008201518160070160016101000a81548160ff021916908360028111156108e8576108e76116f5565b5b02179055505050600061090a6001600280549050610c5690919063ffffffff16565b9050336006600083815260200190815260200160002060006101000a81548173ffffffffffffffffffffffffffffffffffffffff021916908373ffffffffffffffffffffffffffffffffffffffff1602179055506109688133610c6c565b6109728134610ce4565b7f04be756dec315957cd509516327ecd7d757020384f12439c43676bc9b9ef999581878786336040516109a995949392919061137a565b60405180910390a150505050505050565b6109c2610b8a565b73ffffffffffffffffffffffffffffffffffffffff166109e0610636565b73ffffffffffffffffffffffffffffffffffffffff1614610a36576040517f08c379a0000000000000000000000000000000000000000000000000000000008152600401610a2d906112da565b60405180910390fd5b60008110158015610a4957506127108111155b610a88576040517f08c379a0000000000000000000000000000000000000000000000000000000008152600401610a7f9061131a565b60405180910390fd5b80600c8190555050565b610a9a610b8a565b73ffffffffffffffffffffffffffffffffffffffff16610ab8610636565b73ffffffffffffffffffffffffffffffffffffffff1614610b0e576040517f08c379a0000000000000000000000000000000000000000000000000000000008152600401610b05906112da565b60405180910390fd5b600073ffffffffffffffffffffffffffffffffffffffff168173ffffffffffffffffffffffffffffffffffffffff161415610b7e576040517f08c379a0000000000000000000000000000000000000000000000000000000008152600401610b759061127a565b60405180910390fd5b610b8781610b92565b50565b600033905090565b60008060009054906101000a900473ffffffffffffffffffffffffffffffffffffffff169050816000806101000a81548173ffffffffffffffffffffffffffffffffffffffff021916908373ffffffffffffffffffffffffffffffffffffffff1602179055508173ffffffffffffffffffffffffffffffffffffffff168173ffffffffffffffffffffffffffffffffffffffff167f8be0079c531659141344cd1fd0a4f28419497f9722a3daafe3b4186f6b6457e060405160405180910390a35050565b60008183610c64919061152e565b905092915050565b60036000838152602001908152602001600020819080600181540180825580915050600190039060005260206000200160009091909190916101000a81548173ffffffffffffffffffffffffffffffffffffffff021916908373ffffffffffffffffffffffffffffffffffffffff1602179055505050565b6000610cfd612710600c54610d8790919063ffffffff16565b90506000610d148284610d9d90919063ffffffff16565b90506000610d2b8285610c5690919063ffffffff16565b9050610d4282600154610db390919063ffffffff16565b50610d69816004600088815260200190815260200160002054610db390919063ffffffff16565b60046000878152602001908152602001600020819055505050505050565b60008183610d9591906114a3565b905092915050565b60008183610dab91906114d4565b905092915050565b60008183610dc1919061144d565b905092915050565b828054610dd590611634565b90600052602060002090601f016020900481019282610df75760008555610e3e565b82601f10610e1057805160ff1916838001178555610e3e565b82800160010185558215610e3e579182015b82811115610e3d578251825591602001919060010190610e22565b5b509050610e4b9190610e4f565b5090565b5b80821115610e68576000816000905550600101610e50565b5090565b6000610e7f610e7a84611400565b6113db565b905082815260208101848484011115610e9b57610e9a611787565b5b610ea68482856115f2565b509392505050565b600081359050610ebd816119fb565b92915050565b600081359050610ed281611a12565b92915050565b600082601f830112610eed57610eec611782565b5b8135610efd848260208601610e6c565b91505092915050565b600081359050610f1581611a29565b92915050565b600060208284031215610f3157610f30611791565b5b6000610f3f84828501610eae565b91505092915050565b600080600080600060a08688031215610f6457610f63611791565b5b6000610f7288828901610ec3565b955050602086013567ffffffffffffffff811115610f9357610f9261178c565b5b610f9f88828901610ed8565b945050604086013567ffffffffffffffff811115610fc057610fbf61178c565b5b610fcc88828901610ed8565b9350506060610fdd88828901610f06565b9250506080610fee88828901610f06565b9150509295509295909350565b60006020828403121561101157611010611791565b5b600061101f84828501610f06565b91505092915050565b61103181611562565b82525050565b61104081611574565b82525050565b61104f816115ce565b82525050565b61105e816115e0565b82525050565b600061106f82611431565b611079818561143c565b9350611089818560208601611601565b61109281611796565b840191505092915050565b60006110aa60268361143c565b91506110b5826117a7565b604082019050919050565b60006110cd60338361143c565b91506110d8826117f6565b604082019050919050565b60006110f0603d8361143c565b91506110fb82611845565b604082019050919050565b600061111360208361143c565b915061111e82611894565b602082019050919050565b6000611136601e8361143c565b9150611141826118bd565b602082019050919050565b600061115960218361143c565b9150611164826118e6565b604082019050919050565b600061117c603b8361143c565b915061118782611935565b604082019050919050565b600061119f60368361143c565b91506111aa82611984565b604082019050919050565b6111be816115c4565b82525050565b60006020820190506111d96000830184611028565b92915050565b6000610120820190506111f5600083018c611037565b8181036020830152611207818b611064565b9050818103604083015261121b818a611064565b905061122a60608301896111b5565b61123760808301886111b5565b61124460a08301876111b5565b61125160c08301866111b5565b61125e60e0830185611055565b61126c610100830184611046565b9a9950505050505050505050565b600060208201905081810360008301526112938161109d565b9050919050565b600060208201905081810360008301526112b3816110c0565b9050919050565b600060208201905081810360008301526112d3816110e3565b9050919050565b600060208201905081810360008301526112f381611106565b9050919050565b6000602082019050818103600083015261131381611129565b9050919050565b600060208201905081810360008301526113338161114c565b9050919050565b600060208201905081810360008301526113538161116f565b9050919050565b6000602082019050818103600083015261137381611192565b9050919050565b600060a08201905061138f60008301886111b5565b81810360208301526113a18187611064565b905081810360408301526113b58186611064565b90506113c460608301856111b5565b6113d16080830184611028565b9695505050505050565b60006113e56113f6565b90506113f18282611666565b919050565b6000604051905090565b600067ffffffffffffffff82111561141b5761141a611753565b5b61142482611796565b9050602081019050919050565b600081519050919050565b600082825260208201905092915050565b6000611458826115c4565b9150611463836115c4565b9250827fffffffffffffffffffffffffffffffffffffffffffffffffffffffffffffffff0382111561149857611497611697565b5b828201905092915050565b60006114ae826115c4565b91506114b9836115c4565b9250826114c9576114c86116c6565b5b828204905092915050565b60006114df826115c4565b91506114ea836115c4565b9250817fffffffffffffffffffffffffffffffffffffffffffffffffffffffffffffffff048311821515161561152357611522611697565b5b828202905092915050565b6000611539826115c4565b9150611544836115c4565b92508282101561155757611556611697565b5b828203905092915050565b600061156d826115a4565b9050919050565b6000819050919050565b600081905061158c826119d3565b919050565b600081905061159f826119e7565b919050565b600073ffffffffffffffffffffffffffffffffffffffff82169050919050565b6000819050919050565b60006115d98261157e565b9050919050565b60006115eb82611591565b9050919050565b82818337600083830152505050565b60005b8381101561161f578082015181840152602081019050611604565b8381111561162e576000848401525b50505050565b6000600282049050600182168061164c57607f821691505b602082108114156116605761165f611724565b5b50919050565b61166f82611796565b810181811067ffffffffffffffff8211171561168e5761168d611753565b5b80604052505050565b7f4e487b7100000000000000000000000000000000000000000000000000000000600052601160045260246000fd5b7f4e487b7100000000000000000000000000000000000000000000000000000000600052601260045260246000fd5b7f4e487b7100000000000000000000000000000000000000000000000000000000600052602160045260246000fd5b7f4e487b7100000000000000000000000000000000000000000000000000000000600052602260045260246000fd5b7f4e487b7100000000000000000000000000000000000000000000000000000000600052604160045260246000fd5b600080fd5b600080fd5b600080fd5b600080fd5b6000601f19601f8301169050919050565b7f4f776e61626c653a206e6577206f776e657220697320746865207a65726f206160008201527f6464726573730000000000000000000000000000000000000000000000000000602082015250565b7f457363726f7720616d6f756e7420746f6f206c617267652e20506c656173652060008201527f6465637265617365206974732076616c75652e00000000000000000000000000602082015250565b7f44617465206f66206576656e74206d7573742062652061746c6561737420313260008201527f20686f7572732066726f6d207468652070726573656e742074696d652e000000602082015250565b7f4f776e61626c653a2063616c6c6572206973206e6f7420746865206f776e6572600082015250565b7f436f6e74726163742062616c616e636520696e73756666696369656e742e0000600082015250565b7f496e76616c6964206f7065726174696e67206665652070657263656e7461676560008201527f2e00000000000000000000000000000000000000000000000000000000000000602082015250565b7f44617465206f66206576656e74206d757374206e6f742065786365656420312060008201527f796561722066726f6d207468652070726573656e742074696d652e0000000000602082015250565b7f457363726f7720616d6f756e7420696e73756666696369656e742e20506c656160008201527f736520696e637265617365206974732076616c75652e00000000000000000000602082015250565b600381106119e4576119e36116f5565b5b50565b600381106119f8576119f76116f5565b5b50565b611a0481611562565b8114611a0f57600080fd5b50565b611a1b81611574565b8114611a2657600080fd5b50565b611a32816115c4565b8114611a3d57600080fd5b5056fea26469706673582212205952291d9988f49f189f5cf008c35be9596738b430c0ed5ef9be58e8efc24c9164736f6c63430008060033",
  "immutableReferences": {},
  "source": "pragma solidity ^0.8.0;\n\nimport \"./PintNight.sol\";\nimport \"@openzeppelin/contracts/utils/math/SafeMath.sol\";\n\ncontract EventCreation is PintNight {\n    // To Do: Audit visibility of fns (private, public, etc.)\n    // To Do: add NatSpec comments\n    // To Do: remove whatever you aren't using here\n    // Overall, audit use of uint sizes. Can prob save alot here.\n    using SafeMath for uint256;\n    using SafeMath for uint32;\n    using SafeMath for uint16;\n\n    // EVENTS\n    event NewEvent(\n        uint eventId,\n        string name,\n        string location,\n        uint256 date,\n        address host\n    );\n\n    // VARS\n    // Fee = escrow amount the host sets when creating the event. NOT the operating fee.\n    // $1.88 USD to $18.82 USD roughly.\n    // UI should reccomend $5-15 USD in ether (avg pub beer price).\n    uint256 minFee = 0.001 ether;\n    uint256 maxFee = 0.01 ether;\n\n    // Percentage cut that PintNight takes on each member who joins.\n    // Must be between 0-10,000. Originally set at 300, or 3%.\n    uint256 operatingFeePercentage = 300;\n\n    // MODIFIERS\n\n    // CONSTRUCTOR\n    // Use custom fuction to initiate contract details upon call from FE app.\n    // Hash _code on the frontend. Anyone who has code can join.\n    function initEvent(\n        bytes32 _code,\n        string memory _name,\n        string memory _location,\n        uint256 _coordinates,\n        uint256 _date\n    )\n        public\n        payable\n    {\n        // Make sure event is in future. _date should be time in seconds after epoch.\n        // block.timestamp - uint256 val in seconds since the epoch.\n        require(_date < (block.timestamp + 52 weeks), \"Date of event must not exceed 1 year from the present time.\");\n        require(_date >= (block.timestamp + 12 hours), \"Date of event must be atleast 12 hours from the present time.\");\n\n        // Make sure the event join fee is a reasonable value.\n        require(msg.value >= minFee, \"Escrow amount insufficient. Please increase its value.\");\n        require(msg.value <= maxFee, \"Escrow amount too large. Please decrease its value.\");\n\n        // Non-named vars -- [created: block.timestamp, state: 0]\n        // block.timestamp is an alias for \"now\". \"now\" is dep.\n        // Still want to show full fee. Other users will pay the same pre operatingFee.\n        Event memory _event = Event({\n            code: _code,\n            name: _name,\n            location: _location,\n            coordinates: _coordinates,\n            created: block.timestamp,\n            date: _date,\n            fee: msg.value,\n            state: State.BEFORE_EVENT,\n            result: Result.WAITING\n        });\n\n        events.push(_event);\n        uint id = events.length.sub(1);\n\n        // Attendance\n        eventToHost[id] = msg.sender;\n        _addAttendeeToEvent(id, msg.sender);\n\n        // Accounting\n        _eventAccounting(id, msg.value);\n\n        emit NewEvent(id, _name, _location, _date, msg.sender);\n    }\n\n    // RECEIVE (if exists)\n    // FALLBACK (if exists)\n\n    // EXTERNAL\n    function setMinFee(uint _newMinFee) external onlyOwner {\n        minFee = _newMinFee;\n    }\n\n    function setMaxFee(uint _newMaxFee) external onlyOwner {\n        maxFee = _newMaxFee;\n    }\n\n    // This can only be called by function owner.\n    // Instead of charging the user to transfer our % cut (pay more gas), we just keep track of the fees we've accrued.\n    // Users pay 3% of the event fee upon joining or creating an event.\n    function withdrawFees() external onlyOwner {\n        require(address(this).balance > totalOperatingFees, \"Contract balance insufficient.\");\n        payable(owner()).transfer(totalOperatingFees);\n        totalOperatingFees = 0;\n    }\n\n    function setOperatingFeePercentage(uint _percentage) external onlyOwner {\n        require(_percentage >= 0 && _percentage <= 10000, \"Invalid operating fee percentage.\");\n        operatingFeePercentage = _percentage;\n    }\n\n    // PUBLIC\n\n    // PRIVATE\n\n    // INTERNAL\n    function _addAttendeeToEvent(uint _eventId, address _attendee) internal {\n        eventToAttendees[_eventId].push(_attendee);\n    }\n\n    // Keeps track of how much attendees have paid towards the event and operating fees paid.\n    function _eventAccounting(uint _eventId, uint _feePaid) internal {\n        uint calculatedPercentage = operatingFeePercentage.div(10000);\n        uint256 operatingFee = _feePaid.mul(calculatedPercentage);\n        uint256 remainingBalance = _feePaid.sub(operatingFee);\n\n        totalOperatingFees.add(operatingFee);\n        eventToBalance[_eventId] = eventToBalance[_eventId].add(remainingBalance);\n    }\n}",
  "sourcePath": "/Users/griff/Desktop/pintnight/src/contracts/EventCreation.sol",
  "compiler": {
    "name": "solc",
    "version": "0.8.6+commit.11564f7e.Emscripten.clang"
  },
  "schemaVersion": "3.4.1",
  "updatedAt": "2021-08-03T06:27:38.836Z",
  "devdoc": {
    "kind": "dev",
    "methods": {
      "owner()": {
        "details": "Returns the address of the current owner."
      },
      "renounceOwnership()": {
        "details": "Leaves the contract without owner. It will not be possible to call `onlyOwner` functions anymore. Can only be called by the current owner. NOTE: Renouncing ownership will leave the contract without an owner, thereby removing any functionality that is only available to the owner."
      },
      "transferOwnership(address)": {
        "details": "Transfers ownership of the contract to a new account (`newOwner`). Can only be called by the current owner."
      }
    },
    "version": 1
  },
  "userdoc": {
    "kind": "user",
    "methods": {},
    "version": 1
  }
}