{
  "contractName": "EventCheckIn",
  "abi": [
    {
      "anonymous": false,
      "inputs": [
        {
          "indexed": false,
          "internalType": "string",
          "name": "eventName",
          "type": "string"
        },
        {
          "indexed": false,
          "internalType": "string",
          "name": "location",
          "type": "string"
        },
        {
          "indexed": false,
          "internalType": "address",
          "name": "userAddress",
          "type": "address"
        },
        {
          "indexed": false,
          "internalType": "uint256",
          "name": "checkInTime",
          "type": "uint256"
        }
      ],
      "name": "CheckIn",
      "type": "event"
    },
    {
      "anonymous": false,
      "inputs": [
        {
          "indexed": false,
          "internalType": "string",
          "name": "eventName",
          "type": "string"
        },
        {
          "indexed": false,
          "internalType": "string",
          "name": "location",
          "type": "string"
        },
        {
          "indexed": false,
          "internalType": "address",
          "name": "userAddress",
          "type": "address"
        },
        {
          "indexed": false,
          "internalType": "uint256",
          "name": "stateTransitionTime",
          "type": "uint256"
        },
        {
          "indexed": false,
          "internalType": "uint256",
          "name": "eventDate",
          "type": "uint256"
        }
      ],
      "name": "EventStarted",
      "type": "event"
    },
    {
      "anonymous": false,
      "inputs": [
        {
          "indexed": false,
          "internalType": "string",
          "name": "name",
          "type": "string"
        },
        {
          "indexed": false,
          "internalType": "string",
          "name": "location",
          "type": "string"
        },
        {
          "indexed": false,
          "internalType": "uint256",
          "name": "eventDate",
          "type": "uint256"
        },
        {
          "indexed": false,
          "internalType": "uint256",
          "name": "stateTransitionTime",
          "type": "uint256"
        }
      ],
      "name": "FailedEvent",
      "type": "event"
    },
    {
      "anonymous": false,
      "inputs": [
        {
          "indexed": false,
          "internalType": "uint256",
          "name": "eventId",
          "type": "uint256"
        },
        {
          "indexed": false,
          "internalType": "string",
          "name": "name",
          "type": "string"
        },
        {
          "indexed": false,
          "internalType": "string",
          "name": "location",
          "type": "string"
        },
        {
          "indexed": false,
          "internalType": "uint256",
          "name": "date",
          "type": "uint256"
        },
        {
          "indexed": false,
          "internalType": "address",
          "name": "host",
          "type": "address"
        }
      ],
      "name": "NewEvent",
      "type": "event"
    },
    {
      "anonymous": false,
      "inputs": [
        {
          "indexed": true,
          "internalType": "address",
          "name": "previousOwner",
          "type": "address"
        },
        {
          "indexed": true,
          "internalType": "address",
          "name": "newOwner",
          "type": "address"
        }
      ],
      "name": "OwnershipTransferred",
      "type": "event"
    },
    {
      "anonymous": false,
      "inputs": [
        {
          "indexed": false,
          "internalType": "uint256",
          "name": "eventId",
          "type": "uint256"
        },
        {
          "indexed": false,
          "internalType": "string",
          "name": "name",
          "type": "string"
        },
        {
          "indexed": false,
          "internalType": "address",
          "name": "host",
          "type": "address"
        },
        {
          "indexed": false,
          "internalType": "address",
          "name": "invited",
          "type": "address"
        }
      ],
      "name": "UserInvited",
      "type": "event"
    },
    {
      "anonymous": false,
      "inputs": [
        {
          "indexed": false,
          "internalType": "uint256",
          "name": "eventId",
          "type": "uint256"
        },
        {
          "indexed": false,
          "internalType": "string",
          "name": "name",
          "type": "string"
        },
        {
          "indexed": false,
          "internalType": "address",
          "name": "acceptedUser",
          "type": "address"
        },
        {
          "indexed": false,
          "internalType": "address[]",
          "name": "attendees",
          "type": "address[]"
        },
        {
          "indexed": false,
          "internalType": "bool",
          "name": "joinedByCode",
          "type": "bool"
        }
      ],
      "name": "UserJoined",
      "type": "event"
    },
    {
      "inputs": [
        {
          "internalType": "uint256",
          "name": "_eventId",
          "type": "uint256"
        }
      ],
      "name": "acceptInvitation",
      "outputs": [],
      "stateMutability": "payable",
      "type": "function"
    },
    {
      "inputs": [
        {
          "internalType": "uint256",
          "name": "",
          "type": "uint256"
        }
      ],
      "name": "events",
      "outputs": [
        {
          "internalType": "bytes32",
          "name": "code",
          "type": "bytes32"
        },
        {
          "internalType": "string",
          "name": "name",
          "type": "string"
        },
        {
          "internalType": "string",
          "name": "location",
          "type": "string"
        },
        {
          "internalType": "uint256",
          "name": "coordinates",
          "type": "uint256"
        },
        {
          "internalType": "uint256",
          "name": "created",
          "type": "uint256"
        },
        {
          "internalType": "uint256",
          "name": "date",
          "type": "uint256"
        },
        {
          "internalType": "uint256",
          "name": "fee",
          "type": "uint256"
        },
        {
          "internalType": "enum PintNight.State",
          "name": "state",
          "type": "uint8"
        },
        {
          "internalType": "enum PintNight.Result",
          "name": "result",
          "type": "uint8"
        }
      ],
      "stateMutability": "view",
      "type": "function"
    },
    {
      "inputs": [
        {
          "internalType": "bytes32",
          "name": "_code",
          "type": "bytes32"
        },
        {
          "internalType": "string",
          "name": "_name",
          "type": "string"
        },
        {
          "internalType": "string",
          "name": "_location",
          "type": "string"
        },
        {
          "internalType": "uint256",
          "name": "_coordinates",
          "type": "uint256"
        },
        {
          "internalType": "uint256",
          "name": "_date",
          "type": "uint256"
        }
      ],
      "name": "initEvent",
      "outputs": [],
      "stateMutability": "payable",
      "type": "function"
    },
    {
      "inputs": [
        {
          "internalType": "uint256",
          "name": "_eventId",
          "type": "uint256"
        },
        {
          "internalType": "address",
          "name": "_invited",
          "type": "address"
        }
      ],
      "name": "inviteUser",
      "outputs": [],
      "stateMutability": "nonpayable",
      "type": "function"
    },
    {
      "inputs": [
        {
          "internalType": "uint256",
          "name": "_eventId",
          "type": "uint256"
        },
        {
          "internalType": "bytes32",
          "name": "_inviteCode",
          "type": "bytes32"
        }
      ],
      "name": "joinEventByInviteCode",
      "outputs": [],
      "stateMutability": "payable",
      "type": "function"
    },
    {
      "inputs": [],
      "name": "owner",
      "outputs": [
        {
          "internalType": "address",
          "name": "",
          "type": "address"
        }
      ],
      "stateMutability": "view",
      "type": "function"
    },
    {
      "inputs": [],
      "name": "renounceOwnership",
      "outputs": [],
      "stateMutability": "nonpayable",
      "type": "function"
    },
    {
      "inputs": [
        {
          "internalType": "uint256",
          "name": "_newMaxFee",
          "type": "uint256"
        }
      ],
      "name": "setMaxFee",
      "outputs": [],
      "stateMutability": "nonpayable",
      "type": "function"
    },
    {
      "inputs": [
        {
          "internalType": "uint256",
          "name": "_newMinFee",
          "type": "uint256"
        }
      ],
      "name": "setMinFee",
      "outputs": [],
      "stateMutability": "nonpayable",
      "type": "function"
    },
    {
      "inputs": [
        {
          "internalType": "uint256",
          "name": "_percentage",
          "type": "uint256"
        }
      ],
      "name": "setOperatingFeePercentage",
      "outputs": [],
      "stateMutability": "nonpayable",
      "type": "function"
    },
    {
      "inputs": [
        {
          "internalType": "address",
          "name": "newOwner",
          "type": "address"
        }
      ],
      "name": "transferOwnership",
      "outputs": [],
      "stateMutability": "nonpayable",
      "type": "function"
    },
    {
      "inputs": [],
      "name": "withdrawFees",
      "outputs": [],
      "stateMutability": "nonpayable",
      "type": "function"
    },
    {
      "inputs": [
        {
          "internalType": "uint256",
          "name": "_eventId",
          "type": "uint256"
        }
      ],
      "name": "checkInForEvent",
      "outputs": [],
      "stateMutability": "nonpayable",
      "type": "function"
    },
    {
      "inputs": [
        {
          "internalType": "uint256",
          "name": "_eventId",
          "type": "uint256"
        }
      ],
      "name": "rollCall",
      "outputs": [],
      "stateMutability": "nonpayable",
      "type": "function"
    }
  ],
  "bytecode": "0x608060405266038d7ea4c68000600a55662386f26fc10000600b5561012c600c553480156200002d57600080fd5b506200004e620000426200005460201b60201c565b6200005c60201b60201c565b62000120565b600033905090565b60008060009054906101000a900473ffffffffffffffffffffffffffffffffffffffff169050816000806101000a81548173ffffffffffffffffffffffffffffffffffffffff021916908373ffffffffffffffffffffffffffffffffffffffff1602179055508173ffffffffffffffffffffffffffffffffffffffff168173ffffffffffffffffffffffffffffffffffffffff167f8be0079c531659141344cd1fd0a4f28419497f9722a3daafe3b4186f6b6457e060405160405180910390a35050565b6134a780620001306000396000f3fe6080604052600436106100dd5760003560e01c8063715018a61161007f578063ba87768c11610059578063ba87768c1461025c578063baeec0b714610278578063e92af9c7146102a1578063f2fde38b146102ca576100dd565b8063715018a6146101fe5780638da5cb5b146102155780639c5ac25014610240576100dd565b806331ac9920116100bb57806331ac992014610179578063464c5b6c146101a2578063476343ee146101be578063710e5d2f146101d5576100dd565b80630b791430146100e25780630e66a2fb146101275780632cb0dd1414610150575b600080fd5b3480156100ee57600080fd5b5061010960048036038101906101049190612168565b6102f3565b60405161011e999897969594939291906125ff565b60405180910390f35b34801561013357600080fd5b5061014e60048036038101906101499190612195565b61047b565b005b34801561015c57600080fd5b5061017760048036038101906101729190612168565b610692565b005b34801561018557600080fd5b506101a0600480360381019061019b9190612168565b610a88565b005b6101bc60048036038101906101b79190612168565b610b0e565b005b3480156101ca57600080fd5b506101d3610df1565b005b3480156101e157600080fd5b506101fc60048036038101906101f79190612168565b610f22565b005b34801561020a57600080fd5b50610213610fa8565b005b34801561022157600080fd5b5061022a611030565b60405161023791906125e4565b60405180910390f35b61025a600480360381019061025591906120b5565b611059565b005b610276600480360381019061027191906121d5565b6113b4565b005b34801561028457600080fd5b5061029f600480360381019061029a9190612168565b6116ff565b005b3480156102ad57600080fd5b506102c860048036038101906102c39190612168565b611a0b565b005b3480156102d657600080fd5b506102f160048036038101906102ec9190612088565b611ae3565b005b6002818154811061030357600080fd5b906000526020600020906008020160009150905080600001549080600101805461032c90612d87565b80601f016020809104026020016040519081016040528092919081815260200182805461035890612d87565b80156103a55780601f1061037a576101008083540402835291602001916103a5565b820191906000526020600020905b81548152906001019060200180831161038857829003601f168201915b5050505050908060020180546103ba90612d87565b80601f01602080910402602001604051908101604052809291908181526020018280546103e690612d87565b80156104335780601f1061040857610100808354040283529160200191610433565b820191906000526020600020905b81548152906001019060200180831161041657829003601f168201915b5050505050908060030154908060040154908060050154908060060154908060070160009054906101000a900460ff16908060070160019054906101000a900460ff16905089565b81600060028111156104905761048f612eab565b5b600282815481106104a4576104a3612f09565b5b906000526020600020906008020160070160009054906101000a900460ff1660028111156104d5576104d4612eab565b5b14610515576040517f08c379a000000000000000000000000000000000000000000000000000000000815260040161050c90612841565b60405180910390fd5b826006600082815260200190815260200160002060009054906101000a900473ffffffffffffffffffffffffffffffffffffffff1673ffffffffffffffffffffffffffffffffffffffff163373ffffffffffffffffffffffffffffffffffffffff16146105b7576040517f08c379a00000000000000000000000000000000000000000000000000000000081526004016105ae906128e1565b60405180910390fd5b60076000858152602001908152602001600020839080600181540180825580915050600190039060005260206000200160009091909190916101000a81548173ffffffffffffffffffffffffffffffffffffffff021916908373ffffffffffffffffffffffffffffffffffffffff1602179055507f94ef53e7db123adbcdfca5356f9d0503e88e4d11d66e74b2713f5b27d9c5a60e846002868154811061066157610660612f09565b5b906000526020600020906008020160010133866040516106849493929190612a02565b60405180910390a150505050565b80600060028111156106a7576106a6612eab565b5b600282815481106106bb576106ba612f09565b5b906000526020600020906008020160070160009054906101000a900460ff1660028111156106ec576106eb612eab565b5b1461072c576040517f08c379a000000000000000000000000000000000000000000000000000000000815260040161072390612841565b60405180910390fd5b8160003373ffffffffffffffffffffffffffffffffffffffff166006600084815260200190815260200160002060009054906101000a900473ffffffffffffffffffffffffffffffffffffffff1673ffffffffffffffffffffffffffffffffffffffff16141561079f57600190506108b0565b60006003600084815260200190815260200160002080548060200260200160405190810160405280929190818152602001828054801561083457602002820191906000526020600020905b8160009054906101000a900473ffffffffffffffffffffffffffffffffffffffff1673ffffffffffffffffffffffffffffffffffffffff16815260200190600101908083116107ea575b5050505050905060005b81518110156108ad573373ffffffffffffffffffffffffffffffffffffffff1682828151811061087157610870612f09565b5b602002602001015173ffffffffffffffffffffffffffffffffffffffff16141561089a57600192505b80806108a590612e04565b91505061083e565b50505b806108f0576040517f08c379a00000000000000000000000000000000000000000000000000000000081526004016108e7906127a1565b60405180910390fd5b60006002858154811061090657610905612f09565b5b9060005260206000209060080201905060006109316103848360050154611bdb90919063ffffffff16565b9050428260050154101561097a576040517f08c379a000000000000000000000000000000000000000000000000000000000815260040161097190612981565b60405180910390fd5b804211610a765760018260070160006101000a81548160ff021916908360028111156109a9576109a8612eab565b5b021790555060018260070160016101000a81548160ff021916908360028111156109d6576109d5612eab565b5b02179055506109e58633611bf1565b7f95f3508e3d2601a1185dfa8d252fbe21a9bde55eb81f8ec7402feb5cd1320372826001018360020133428660050154604051610a269594939291906126ed565b60405180910390a17fa589e4682782979c3572a610297ccac31bfe875b0c2b13cc0f018725ac0d66f482600101836002013342604051610a69949392919061269a565b60405180910390a1610a80565b610a7f82611c69565b5b505050505050565b610a90611d0d565b73ffffffffffffffffffffffffffffffffffffffff16610aae611030565b73ffffffffffffffffffffffffffffffffffffffff1614610b04576040517f08c379a0000000000000000000000000000000000000000000000000000000008152600401610afb90612881565b60405180910390fd5b80600a8190555050565b8060006002811115610b2357610b22612eab565b5b60028281548110610b3757610b36612f09565b5b906000526020600020906008020160070160009054906101000a900460ff166002811115610b6857610b67612eab565b5b14610ba8576040517f08c379a0000000000000000000000000000000000000000000000000000000008152600401610b9f90612841565b60405180910390fd5b8160008060076000848152602001908152602001600020805480602002602001604051908101604052809291908181526020018280548015610c3f57602002820191906000526020600020905b8160009054906101000a900473ffffffffffffffffffffffffffffffffffffffff1673ffffffffffffffffffffffffffffffffffffffff1681526020019060010190808311610bf5575b5050505050905060005b8151811015610cb8573373ffffffffffffffffffffffffffffffffffffffff16828281518110610c7c57610c7b612f09565b5b602002602001015173ffffffffffffffffffffffffffffffffffffffff161415610ca557600192505b8080610cb090612e04565b915050610c49565b5081610cf9576040517f08c379a0000000000000000000000000000000000000000000000000000000008152600401610cf0906128a1565b60405180910390fd5b60028581548110610d0d57610d0c612f09565b5b9060005260206000209060080201600601543414610d60576040517f08c379a0000000000000000000000000000000000000000000000000000000008152600401610d5790612961565b60405180910390fd5b610d6a8534611d15565b610d748533611db8565b7f0c6a69959e047459e430b130691a13fba617e0ed6d8f29ff7e802d2051f39c6c8560028781548110610daa57610da9612f09565b5b906000526020600020906008020160010133600360008a81526020019081526020016000206000604051610de2959493929190612a4e565b60405180910390a15050505050565b610df9611d0d565b73ffffffffffffffffffffffffffffffffffffffff16610e17611030565b73ffffffffffffffffffffffffffffffffffffffff1614610e6d576040517f08c379a0000000000000000000000000000000000000000000000000000000008152600401610e6490612881565b60405180910390fd5b6001543073ffffffffffffffffffffffffffffffffffffffff163111610ec8576040517f08c379a0000000000000000000000000000000000000000000000000000000008152600401610ebf906128c1565b60405180910390fd5b610ed0611030565b73ffffffffffffffffffffffffffffffffffffffff166108fc6001549081150290604051600060405180830381858888f19350505050158015610f17573d6000803e3d6000fd5b506000600181905550565b610f2a611d0d565b73ffffffffffffffffffffffffffffffffffffffff16610f48611030565b73ffffffffffffffffffffffffffffffffffffffff1614610f9e576040517f08c379a0000000000000000000000000000000000000000000000000000000008152600401610f9590612881565b60405180910390fd5b80600b8190555050565b610fb0611d0d565b73ffffffffffffffffffffffffffffffffffffffff16610fce611030565b73ffffffffffffffffffffffffffffffffffffffff1614611024576040517f08c379a000000000000000000000000000000000000000000000000000000000815260040161101b90612881565b60405180910390fd5b61102e6000611e30565b565b60008060009054906101000a900473ffffffffffffffffffffffffffffffffffffffff16905090565b6301dfe200426110699190612b74565b81106110aa576040517f08c379a00000000000000000000000000000000000000000000000000000000081526004016110a190612921565b60405180910390fd5b61a8c0426110b89190612b74565b8110156110fa576040517f08c379a00000000000000000000000000000000000000000000000000000000081526004016110f190612821565b60405180910390fd5b600a5434101561113f576040517f08c379a000000000000000000000000000000000000000000000000000000000815260040161113690612941565b60405180910390fd5b600b54341115611184576040517f08c379a000000000000000000000000000000000000000000000000000000000815260040161117b90612801565b60405180910390fd5b6000604051806101200160405280878152602001868152602001858152602001848152602001428152602001838152602001348152602001600060028111156111d0576111cf612eab565b5b8152602001600060028111156111e9576111e8612eab565b5b81525090506002819080600181540180825580915050600190039060005260206000209060080201600090919091909150600082015181600001556020820151816001019080519060200190611240929190611f36565b50604082015181600201908051906020019061125d929190611f36565b50606082015181600301556080820151816004015560a0820151816005015560c0820151816006015560e08201518160070160006101000a81548160ff021916908360028111156112b1576112b0612eab565b5b02179055506101008201518160070160016101000a81548160ff021916908360028111156112e2576112e1612eab565b5b0217905550505060006113046001600280549050611ef490919063ffffffff16565b9050336006600083815260200190815260200160002060006101000a81548173ffffffffffffffffffffffffffffffffffffffff021916908373ffffffffffffffffffffffffffffffffffffffff1602179055506113628133611db8565b61136c8134611d15565b7f04be756dec315957cd509516327ecd7d757020384f12439c43676bc9b9ef999581878786336040516113a39594939291906129a1565b60405180910390a150505050505050565b81600060028111156113c9576113c8612eab565b5b600282815481106113dd576113dc612f09565b5b906000526020600020906008020160070160009054906101000a900460ff16600281111561140e5761140d612eab565b5b1461144e576040517f08c379a000000000000000000000000000000000000000000000000000000000815260040161144590612841565b60405180910390fd5b82600080600760008481526020019081526020016000208054806020026020016040519081016040528092919081815260200182805480156114e557602002820191906000526020600020905b8160009054906101000a900473ffffffffffffffffffffffffffffffffffffffff1673ffffffffffffffffffffffffffffffffffffffff168152602001906001019080831161149b575b5050505050905060005b815181101561155e573373ffffffffffffffffffffffffffffffffffffffff1682828151811061152257611521612f09565b5b602002602001015173ffffffffffffffffffffffffffffffffffffffff16141561154b57600192505b808061155690612e04565b9150506114ef565b508161159f576040517f08c379a0000000000000000000000000000000000000000000000000000000008152600401611596906128a1565b60405180910390fd5b600286815481106115b3576115b2612f09565b5b9060005260206000209060080201600001548514611606576040517f08c379a00000000000000000000000000000000000000000000000000000000081526004016115fd906127c1565b60405180910390fd5b6002868154811061161a57611619612f09565b5b906000526020600020906008020160060154341461166d576040517f08c379a000000000000000000000000000000000000000000000000000000000815260040161166490612961565b60405180910390fd5b6116778634611d15565b6116818633611db8565b7f0c6a69959e047459e430b130691a13fba617e0ed6d8f29ff7e802d2051f39c6c86600288815481106116b7576116b6612f09565b5b906000526020600020906008020160010133600360008b815260200190815260200160002060016040516116ef959493929190612a4e565b60405180910390a1505050505050565b806001600281111561171457611713612eab565b5b6002828154811061172857611727612f09565b5b906000526020600020906008020160070160009054906101000a900460ff16600281111561175957611758612eab565b5b14611799576040517f08c379a000000000000000000000000000000000000000000000000000000000815260040161179090612861565b60405180910390fd5b8160003373ffffffffffffffffffffffffffffffffffffffff166006600084815260200190815260200160002060009054906101000a900473ffffffffffffffffffffffffffffffffffffffff1673ffffffffffffffffffffffffffffffffffffffff16141561180c576001905061191d565b6000600360008481526020019081526020016000208054806020026020016040519081016040528092919081815260200182805480156118a157602002820191906000526020600020905b8160009054906101000a900473ffffffffffffffffffffffffffffffffffffffff1673ffffffffffffffffffffffffffffffffffffffff1681526020019060010190808311611857575b5050505050905060005b815181101561191a573373ffffffffffffffffffffffffffffffffffffffff168282815181106118de576118dd612f09565b5b602002602001015173ffffffffffffffffffffffffffffffffffffffff16141561190757600192505b808061191290612e04565b9150506118ab565b50505b8061195d576040517f08c379a0000000000000000000000000000000000000000000000000000000008152600401611954906127a1565b60405180910390fd5b60006002858154811061197357611972612f09565b5b90600052602060002090600802019050600061199e6103848360050154611bdb90919063ffffffff16565b90508042116119f9576119b18633611bf1565b7fa589e4682782979c3572a610297ccac31bfe875b0c2b13cc0f018725ac0d66f4826001018360020133426040516119ec949392919061269a565b60405180910390a1611a03565b611a0282611c69565b5b505050505050565b611a13611d0d565b73ffffffffffffffffffffffffffffffffffffffff16611a31611030565b73ffffffffffffffffffffffffffffffffffffffff1614611a87576040517f08c379a0000000000000000000000000000000000000000000000000000000008152600401611a7e90612881565b60405180910390fd5b60008110158015611a9a57506127108111155b611ad9576040517f08c379a0000000000000000000000000000000000000000000000000000000008152600401611ad090612901565b60405180910390fd5b80600c8190555050565b611aeb611d0d565b73ffffffffffffffffffffffffffffffffffffffff16611b09611030565b73ffffffffffffffffffffffffffffffffffffffff1614611b5f576040517f08c379a0000000000000000000000000000000000000000000000000000000008152600401611b5690612881565b60405180910390fd5b600073ffffffffffffffffffffffffffffffffffffffff168173ffffffffffffffffffffffffffffffffffffffff161415611bcf576040517f08c379a0000000000000000000000000000000000000000000000000000000008152600401611bc6906127e1565b60405180910390fd5b611bd881611e30565b50565b60008183611be99190612b74565b905092915050565b60056000838152602001908152602001600020819080600181540180825580915050600190039060005260206000200160009091909190916101000a81548173ffffffffffffffffffffffffffffffffffffffff021916908373ffffffffffffffffffffffffffffffffffffffff1602179055505050565b60028160070160006101000a81548160ff02191690836002811115611c9157611c90612eab565b5b021790555060028160070160016101000a81548160ff02191690836002811115611cbe57611cbd612eab565b5b02179055507f8b187a9012477fc8a7d5e6277af1ecd606198cf48245c65c4d5120441ee9cc198160010182600201836005015442604051611d02949392919061274e565b60405180910390a150565b600033905090565b6000611d2e612710600c54611f0a90919063ffffffff16565b90506000611d458284611f2090919063ffffffff16565b90506000611d5c8285611ef490919063ffffffff16565b9050611d7382600154611bdb90919063ffffffff16565b50611d9a816004600088815260200190815260200160002054611bdb90919063ffffffff16565b60046000878152602001908152602001600020819055505050505050565b60036000838152602001908152602001600020819080600181540180825580915050600190039060005260206000200160009091909190916101000a81548173ffffffffffffffffffffffffffffffffffffffff021916908373ffffffffffffffffffffffffffffffffffffffff1602179055505050565b60008060009054906101000a900473ffffffffffffffffffffffffffffffffffffffff169050816000806101000a81548173ffffffffffffffffffffffffffffffffffffffff021916908373ffffffffffffffffffffffffffffffffffffffff1602179055508173ffffffffffffffffffffffffffffffffffffffff168173ffffffffffffffffffffffffffffffffffffffff167f8be0079c531659141344cd1fd0a4f28419497f9722a3daafe3b4186f6b6457e060405160405180910390a35050565b60008183611f029190612c55565b905092915050565b60008183611f189190612bca565b905092915050565b60008183611f2e9190612bfb565b905092915050565b828054611f4290612d87565b90600052602060002090601f016020900481019282611f645760008555611fab565b82601f10611f7d57805160ff1916838001178555611fab565b82800160010185558215611fab579182015b82811115611faa578251825591602001919060010190611f8f565b5b509050611fb89190611fbc565b5090565b5b80821115611fd5576000816000905550600101611fbd565b5090565b6000611fec611fe784612ad4565b612aaf565b90508281526020810184848401111561200857612007612f7f565b5b612013848285612d45565b509392505050565b60008135905061202a8161342c565b92915050565b60008135905061203f81613443565b92915050565b600082601f83011261205a57612059612f7a565b5b813561206a848260208601611fd9565b91505092915050565b6000813590506120828161345a565b92915050565b60006020828403121561209e5761209d612f89565b5b60006120ac8482850161201b565b91505092915050565b600080600080600060a086880312156120d1576120d0612f89565b5b60006120df88828901612030565b955050602086013567ffffffffffffffff811115612100576120ff612f84565b5b61210c88828901612045565b945050604086013567ffffffffffffffff81111561212d5761212c612f84565b5b61213988828901612045565b935050606061214a88828901612073565b925050608061215b88828901612073565b9150509295509295909350565b60006020828403121561217e5761217d612f89565b5b600061218c84828501612073565b91505092915050565b600080604083850312156121ac576121ab612f89565b5b60006121ba85828601612073565b92505060206121cb8582860161201b565b9150509250929050565b600080604083850312156121ec576121eb612f89565b5b60006121fa85828601612073565b925050602061220b85828601612030565b9150509250929050565b6000612221838361222d565b60208301905092915050565b61223681612ca9565b82525050565b61224581612ca9565b82525050565b600061225682612b2f565b6122608185612b52565b935061226b83612b05565b8060005b838110156122a35761228082612f67565b61228a8882612215565b975061229583612b45565b92505060018101905061226f565b5085935050505092915050565b6122b981612cbb565b82525050565b6122c881612cc7565b82525050565b6122d781612d21565b82525050565b6122e681612d33565b82525050565b60006122f782612b3a565b6123018185612b63565b9350612311818560208601612d54565b61231a81612f8e565b840191505092915050565b6000815461233281612d87565b61233c8186612b63565b9450600182166000811461235757600181146123695761239c565b60ff198316865260208601935061239c565b61237285612b1a565b60005b8381101561239457815481890152600182019150602081019050612375565b808801955050505b50505092915050565b60006123b2603683612b63565b91506123bd82612fac565b604082019050919050565b60006123d5601483612b63565b91506123e082612ffb565b602082019050919050565b60006123f8602683612b63565b915061240382613024565b604082019050919050565b600061241b603383612b63565b915061242682613073565b604082019050919050565b600061243e603d83612b63565b9150612449826130c2565b604082019050919050565b6000612461602283612b63565b915061246c82613111565b604082019050919050565b6000612484601b83612b63565b915061248f82613160565b602082019050919050565b60006124a7602083612b63565b91506124b282613189565b602082019050919050565b60006124ca603583612b63565b91506124d5826131b2565b604082019050919050565b60006124ed601e83612b63565b91506124f882613201565b602082019050919050565b6000612510603383612b63565b915061251b8261322a565b604082019050919050565b6000612533602183612b63565b915061253e82613279565b604082019050919050565b6000612556603b83612b63565b9150612561826132c8565b604082019050919050565b6000612579603683612b63565b915061258482613317565b604082019050919050565b600061259c603f83612b63565b91506125a782613366565b604082019050919050565b60006125bf603783612b63565b91506125ca826133b5565b604082019050919050565b6125de81612d17565b82525050565b60006020820190506125f9600083018461223c565b92915050565b600061012082019050612615600083018c6122bf565b8181036020830152612627818b6122ec565b9050818103604083015261263b818a6122ec565b905061264a60608301896125d5565b61265760808301886125d5565b61266460a08301876125d5565b61267160c08301866125d5565b61267e60e08301856122dd565b61268c6101008301846122ce565b9a9950505050505050505050565b600060808201905081810360008301526126b48187612325565b905081810360208301526126c88186612325565b90506126d7604083018561223c565b6126e460608301846125d5565b95945050505050565b600060a08201905081810360008301526127078188612325565b9050818103602083015261271b8187612325565b905061272a604083018661223c565b61273760608301856125d5565b61274460808301846125d5565b9695505050505050565b600060808201905081810360008301526127688187612325565b9050818103602083015261277c8186612325565b905061278b60408301856125d5565b61279860608301846125d5565b95945050505050565b600060208201905081810360008301526127ba816123a5565b9050919050565b600060208201905081810360008301526127da816123c8565b9050919050565b600060208201905081810360008301526127fa816123eb565b9050919050565b6000602082019050818103600083015261281a8161240e565b9050919050565b6000602082019050818103600083015261283a81612431565b9050919050565b6000602082019050818103600083015261285a81612454565b9050919050565b6000602082019050818103600083015261287a81612477565b9050919050565b6000602082019050818103600083015261289a8161249a565b9050919050565b600060208201905081810360008301526128ba816124bd565b9050919050565b600060208201905081810360008301526128da816124e0565b9050919050565b600060208201905081810360008301526128fa81612503565b9050919050565b6000602082019050818103600083015261291a81612526565b9050919050565b6000602082019050818103600083015261293a81612549565b9050919050565b6000602082019050818103600083015261295a8161256c565b9050919050565b6000602082019050818103600083015261297a8161258f565b9050919050565b6000602082019050818103600083015261299a816125b2565b9050919050565b600060a0820190506129b660008301886125d5565b81810360208301526129c881876122ec565b905081810360408301526129dc81866122ec565b90506129eb60608301856125d5565b6129f8608083018461223c565b9695505050505050565b6000608082019050612a1760008301876125d5565b8181036020830152612a298186612325565b9050612a38604083018561223c565b612a45606083018461223c565b95945050505050565b600060a082019050612a6360008301886125d5565b8181036020830152612a758187612325565b9050612a84604083018661223c565b8181036060830152612a96818561224b565b9050612aa560808301846122b0565b9695505050505050565b6000612ab9612aca565b9050612ac58282612dd3565b919050565b6000604051905090565b600067ffffffffffffffff821115612aef57612aee612f38565b5b612af882612f8e565b9050602081019050919050565b60008190508160005260206000209050919050565b60008190508160005260206000209050919050565b600081549050919050565b600081519050919050565b6000600182019050919050565b600082825260208201905092915050565b600082825260208201905092915050565b6000612b7f82612d17565b9150612b8a83612d17565b9250827fffffffffffffffffffffffffffffffffffffffffffffffffffffffffffffffff03821115612bbf57612bbe612e4d565b5b828201905092915050565b6000612bd582612d17565b9150612be083612d17565b925082612bf057612bef612e7c565b5b828204905092915050565b6000612c0682612d17565b9150612c1183612d17565b9250817fffffffffffffffffffffffffffffffffffffffffffffffffffffffffffffffff0483118215151615612c4a57612c49612e4d565b5b828202905092915050565b6000612c6082612d17565b9150612c6b83612d17565b925082821015612c7e57612c7d612e4d565b5b828203905092915050565b600073ffffffffffffffffffffffffffffffffffffffff82169050919050565b6000612cb482612cf7565b9050919050565b60008115159050919050565b6000819050919050565b6000819050612cdf82613404565b919050565b6000819050612cf282613418565b919050565b600073ffffffffffffffffffffffffffffffffffffffff82169050919050565b6000819050919050565b6000612d2c82612cd1565b9050919050565b6000612d3e82612ce4565b9050919050565b82818337600083830152505050565b60005b83811015612d72578082015181840152602081019050612d57565b83811115612d81576000848401525b50505050565b60006002820490506001821680612d9f57607f821691505b60208210811415612db357612db2612eda565b5b50919050565b6000612dcc612dc783612f9f565b612c89565b9050919050565b612ddc82612f8e565b810181811067ffffffffffffffff82111715612dfb57612dfa612f38565b5b80604052505050565b6000612e0f82612d17565b91507fffffffffffffffffffffffffffffffffffffffffffffffffffffffffffffffff821415612e4257612e41612e4d565b5b600182019050919050565b7f4e487b7100000000000000000000000000000000000000000000000000000000600052601160045260246000fd5b7f4e487b7100000000000000000000000000000000000000000000000000000000600052601260045260246000fd5b7f4e487b7100000000000000000000000000000000000000000000000000000000600052602160045260246000fd5b7f4e487b7100000000000000000000000000000000000000000000000000000000600052602260045260246000fd5b7f4e487b7100000000000000000000000000000000000000000000000000000000600052603260045260246000fd5b7f4e487b7100000000000000000000000000000000000000000000000000000000600052604160045260246000fd5b6000612f738254612db9565b9050919050565b600080fd5b600080fd5b600080fd5b600080fd5b6000601f19601f8301169050919050565b60008160001c9050919050565b7f4f6e6c7920616e20617474656e646565206f662074686973206576656e74206360008201527f616e2063616c6c20746869732066756e6374696f6e2e00000000000000000000602082015250565b7f496e636f7272656374206a6f696e20636f64652e000000000000000000000000600082015250565b7f4f776e61626c653a206e6577206f776e657220697320746865207a65726f206160008201527f6464726573730000000000000000000000000000000000000000000000000000602082015250565b7f457363726f7720616d6f756e7420746f6f206c617267652e20506c656173652060008201527f6465637265617365206974732076616c75652e00000000000000000000000000602082015250565b7f44617465206f66206576656e74206d7573742062652061746c6561737420313260008201527f20686f7572732066726f6d207468652070726573656e742074696d652e000000602082015250565b7f4974206973206e6f7420746865206576656e7420696e7669746520706572696f60008201527f642e000000000000000000000000000000000000000000000000000000000000602082015250565b7f4974206973206e6f7420746865206576656e7420706572696f642e0000000000600082015250565b7f4f776e61626c653a2063616c6c6572206973206e6f7420746865206f776e6572600082015250565b7f4f6e6c7920616e20696e7669746565206f662074686973206576656e7420636160008201527f6e2063616c6c20746869732066756e6374696f6e2e0000000000000000000000602082015250565b7f436f6e74726163742062616c616e636520696e73756666696369656e742e0000600082015250565b7f4f6e6c792074686520686f7374206f662074686973206576656e742063616e2060008201527f63616c6c20746869732066756e6374696f6e2e00000000000000000000000000602082015250565b7f496e76616c6964206f7065726174696e67206665652070657263656e7461676560008201527f2e00000000000000000000000000000000000000000000000000000000000000602082015250565b7f44617465206f66206576656e74206d757374206e6f742065786365656420312060008201527f796561722066726f6d207468652070726573656e742074696d652e0000000000602082015250565b7f457363726f7720616d6f756e7420696e73756666696369656e742e20506c656160008201527f736520696e637265617365206974732076616c75652e00000000000000000000602082015250565b7f496e636f727265637420657363726f7720616d6f756e742e20506c656173652060008201527f7573652074686520657861637420616d6f756e74207370656369666965642e00602082015250565b7f4576656e7420686173206e6f742079657420737461727465642e20547279206360008201527f6865636b696e6720696e20616761696e206c617465722e000000000000000000602082015250565b6003811061341557613414612eab565b5b50565b6003811061342957613428612eab565b5b50565b61343581612ca9565b811461344057600080fd5b50565b61344c81612cc7565b811461345757600080fd5b50565b61346381612d17565b811461346e57600080fd5b5056fea2646970667358221220f6bc0ab9736c4d4445d1a543fd991c90a02c1083652a3bb57e5d997ead5caba664736f6c63430008060033",
  "immutableReferences": {},
  "source": "pragma solidity ^0.8.0;\n\nimport \"./EventInvite.sol\";\nimport \"@openzeppelin/contracts/utils/math/SafeMath.sol\";\n\n\ncontract EventCheckIn is EventInvite  {\n    using SafeMath for uint256;\n    using SafeMath for uint32;\n    using SafeMath for uint16;\n\n    // EVENTS\n    event CheckIn(\n        string eventName,\n        string location,\n        address userAddress,\n        uint256 checkInTime\n    );\n\n    event EventStarted(\n        string eventName,\n        string location,\n        address userAddress,\n        uint256 stateTransitionTime,\n        uint256 eventDate\n    );\n\n    event FailedEvent(\n        string name,\n        string location,\n        uint256 eventDate,\n        uint256 stateTransitionTime\n    );\n\n    // VARS\n\n    // MODIFIERS\n    modifier eventPeriod(uint _eventId) {\n        require(events[_eventId].state == State.EVENT_PERIOD, 'It is not the event period.');\n        _;\n    }\n\n    modifier onlyAttendee(uint _eventId) {\n        // The below may error out. Trying to shallow copy arr.\n        // Memory arrs need a fixed length.\n        // Know if they are host, they are definitely an attendee.\n        bool isAttendee = false;\n        if (eventToHost[_eventId] == msg.sender) {\n            isAttendee = true;\n        } else {\n            address[] memory attendees = eventToAttendees[_eventId];\n            for (uint i = 0; i < attendees.length; i++) {\n                if (attendees[i] == msg.sender) {\n                    isAttendee = true;\n                }\n            }\n        }\n\n        require(isAttendee, \"Only an attendee of this event can call this function.\");\n        _;\n    }\n\n\n    // RECEIVE (IF EXISTS)\n    // FALLBACK (IF EXISTS)\n    // EXTERNAL\n\n    // PUBLIC\n    function checkInForEvent(uint _eventId) public eventPeriod(_eventId) onlyAttendee(_eventId) {\n        Event storage ourEpicEvent = events[_eventId];\n        uint upperCheckinTime = ourEpicEvent.date.add(15 minutes);\n\n        if (block.timestamp <= upperCheckinTime) {\n            _addAttendeeToCheckedIn(_eventId, msg.sender);\n            emit CheckIn(ourEpicEvent.name, ourEpicEvent.location, msg.sender, block.timestamp);\n        } else {\n            _markEventFailed(ourEpicEvent);\n        }\n    }\n\n    // NEED: 1.) Invite Period 2.) Be Attendee 3.) Correct time (be after event date to (date + 15 mins))\n    // Worth noting that both the timestamp and the block hash can be influenced by miners to some degree.\n    // Realistically, abuse isn't really practical here given the nature of the app and amt of Ether involved.\n    function rollCall(uint _eventId) public eventInvitePeriod(_eventId) onlyAttendee(_eventId) {\n        Event storage ourEpicEvent = events[_eventId];\n        uint upperCheckinTime = ourEpicEvent.date.add(15 minutes);\n\n        // checkInForEvent is only able to be called during the event. This is called when the state is BEFORE_EVENT.\n        // Need to check to make sure it's not being called prematurely.\n        require(ourEpicEvent.date >= block.timestamp, \"Event has not yet started. Try checking in again later.\");\n\n        // Now we know user is not too early, make sure they are not too late.\n        // If they are within the acceptable window, start event and check-in. If they are not, mark event failed.\n        if (block.timestamp <= upperCheckinTime) {\n            ourEpicEvent.state = State.EVENT_PERIOD;\n            ourEpicEvent.result = Result.SUCCESS;\n            _addAttendeeToCheckedIn(_eventId, msg.sender);\n\n            emit EventStarted(ourEpicEvent.name, ourEpicEvent.location, msg.sender, block.timestamp, ourEpicEvent.date);\n            emit CheckIn(ourEpicEvent.name, ourEpicEvent.location, msg.sender, block.timestamp);\n        } else {\n            _markEventFailed(ourEpicEvent);\n        }\n    }\n\n    // INTERNAL\n\n    // PRIVATE\n    function _addAttendeeToCheckedIn(uint _eventId, address _attendee) private {\n        eventToCheckedIn[_eventId].push(_attendee);\n    }\n\n    function _markEventFailed(Event storage _event) private {\n        _event.state = State.EVENT_COMPLETE;\n        _event.result = Result.FAIL;\n        emit FailedEvent(_event.name, _event.location, _event.date, block.timestamp);\n    }\n}",
  "sourcePath": "/Users/griff/Desktop/pintnight/src/contracts/EventCheckIn.sol",
  "compiler": {
    "name": "solc",
    "version": "0.8.6+commit.11564f7e.Emscripten.clang"
  },
  "schemaVersion": "3.4.1",
  "updatedAt": "2021-08-03T06:27:38.816Z",
  "devdoc": {
    "kind": "dev",
    "methods": {
      "owner()": {
        "details": "Returns the address of the current owner."
      },
      "renounceOwnership()": {
        "details": "Leaves the contract without owner. It will not be possible to call `onlyOwner` functions anymore. Can only be called by the current owner. NOTE: Renouncing ownership will leave the contract without an owner, thereby removing any functionality that is only available to the owner."
      },
      "transferOwnership(address)": {
        "details": "Transfers ownership of the contract to a new account (`newOwner`). Can only be called by the current owner."
      }
    },
    "version": 1
  },
  "userdoc": {
    "kind": "user",
    "methods": {},
    "version": 1
  }
}