{
  "contractName": "EventInvite",
  "abi": [
    {
      "anonymous": false,
      "inputs": [
        {
          "indexed": false,
          "internalType": "uint256",
          "name": "eventId",
          "type": "uint256"
        },
        {
          "indexed": false,
          "internalType": "string",
          "name": "name",
          "type": "string"
        },
        {
          "indexed": false,
          "internalType": "string",
          "name": "location",
          "type": "string"
        },
        {
          "indexed": false,
          "internalType": "uint256",
          "name": "date",
          "type": "uint256"
        },
        {
          "indexed": false,
          "internalType": "address",
          "name": "host",
          "type": "address"
        }
      ],
      "name": "NewEvent",
      "type": "event"
    },
    {
      "anonymous": false,
      "inputs": [
        {
          "indexed": true,
          "internalType": "address",
          "name": "previousOwner",
          "type": "address"
        },
        {
          "indexed": true,
          "internalType": "address",
          "name": "newOwner",
          "type": "address"
        }
      ],
      "name": "OwnershipTransferred",
      "type": "event"
    },
    {
      "anonymous": false,
      "inputs": [
        {
          "indexed": false,
          "internalType": "uint256",
          "name": "eventId",
          "type": "uint256"
        },
        {
          "indexed": false,
          "internalType": "string",
          "name": "name",
          "type": "string"
        },
        {
          "indexed": false,
          "internalType": "address",
          "name": "host",
          "type": "address"
        },
        {
          "indexed": false,
          "internalType": "address",
          "name": "invited",
          "type": "address"
        }
      ],
      "name": "UserInvited",
      "type": "event"
    },
    {
      "anonymous": false,
      "inputs": [
        {
          "indexed": false,
          "internalType": "uint256",
          "name": "eventId",
          "type": "uint256"
        },
        {
          "indexed": false,
          "internalType": "string",
          "name": "name",
          "type": "string"
        },
        {
          "indexed": false,
          "internalType": "address",
          "name": "acceptedUser",
          "type": "address"
        },
        {
          "indexed": false,
          "internalType": "address[]",
          "name": "attendees",
          "type": "address[]"
        },
        {
          "indexed": false,
          "internalType": "bool",
          "name": "joinedByCode",
          "type": "bool"
        }
      ],
      "name": "UserJoined",
      "type": "event"
    },
    {
      "inputs": [
        {
          "internalType": "uint256",
          "name": "",
          "type": "uint256"
        }
      ],
      "name": "events",
      "outputs": [
        {
          "internalType": "bytes32",
          "name": "code",
          "type": "bytes32"
        },
        {
          "internalType": "string",
          "name": "name",
          "type": "string"
        },
        {
          "internalType": "string",
          "name": "location",
          "type": "string"
        },
        {
          "internalType": "uint256",
          "name": "coordinates",
          "type": "uint256"
        },
        {
          "internalType": "uint256",
          "name": "created",
          "type": "uint256"
        },
        {
          "internalType": "uint256",
          "name": "date",
          "type": "uint256"
        },
        {
          "internalType": "uint256",
          "name": "fee",
          "type": "uint256"
        },
        {
          "internalType": "enum PintNight.State",
          "name": "state",
          "type": "uint8"
        },
        {
          "internalType": "enum PintNight.Result",
          "name": "result",
          "type": "uint8"
        }
      ],
      "stateMutability": "view",
      "type": "function"
    },
    {
      "inputs": [
        {
          "internalType": "bytes32",
          "name": "_code",
          "type": "bytes32"
        },
        {
          "internalType": "string",
          "name": "_name",
          "type": "string"
        },
        {
          "internalType": "string",
          "name": "_location",
          "type": "string"
        },
        {
          "internalType": "uint256",
          "name": "_coordinates",
          "type": "uint256"
        },
        {
          "internalType": "uint256",
          "name": "_date",
          "type": "uint256"
        }
      ],
      "name": "initEvent",
      "outputs": [],
      "stateMutability": "payable",
      "type": "function"
    },
    {
      "inputs": [],
      "name": "owner",
      "outputs": [
        {
          "internalType": "address",
          "name": "",
          "type": "address"
        }
      ],
      "stateMutability": "view",
      "type": "function"
    },
    {
      "inputs": [],
      "name": "renounceOwnership",
      "outputs": [],
      "stateMutability": "nonpayable",
      "type": "function"
    },
    {
      "inputs": [
        {
          "internalType": "uint256",
          "name": "_newMaxFee",
          "type": "uint256"
        }
      ],
      "name": "setMaxFee",
      "outputs": [],
      "stateMutability": "nonpayable",
      "type": "function"
    },
    {
      "inputs": [
        {
          "internalType": "uint256",
          "name": "_newMinFee",
          "type": "uint256"
        }
      ],
      "name": "setMinFee",
      "outputs": [],
      "stateMutability": "nonpayable",
      "type": "function"
    },
    {
      "inputs": [
        {
          "internalType": "uint256",
          "name": "_percentage",
          "type": "uint256"
        }
      ],
      "name": "setOperatingFeePercentage",
      "outputs": [],
      "stateMutability": "nonpayable",
      "type": "function"
    },
    {
      "inputs": [
        {
          "internalType": "address",
          "name": "newOwner",
          "type": "address"
        }
      ],
      "name": "transferOwnership",
      "outputs": [],
      "stateMutability": "nonpayable",
      "type": "function"
    },
    {
      "inputs": [],
      "name": "withdrawFees",
      "outputs": [],
      "stateMutability": "nonpayable",
      "type": "function"
    },
    {
      "inputs": [
        {
          "internalType": "uint256",
          "name": "_eventId",
          "type": "uint256"
        }
      ],
      "name": "acceptInvitation",
      "outputs": [],
      "stateMutability": "payable",
      "type": "function"
    },
    {
      "inputs": [
        {
          "internalType": "uint256",
          "name": "_eventId",
          "type": "uint256"
        },
        {
          "internalType": "address",
          "name": "_invited",
          "type": "address"
        }
      ],
      "name": "inviteUser",
      "outputs": [],
      "stateMutability": "nonpayable",
      "type": "function"
    },
    {
      "inputs": [
        {
          "internalType": "uint256",
          "name": "_eventId",
          "type": "uint256"
        },
        {
          "internalType": "bytes32",
          "name": "_inviteCode",
          "type": "bytes32"
        }
      ],
      "name": "joinEventByInviteCode",
      "outputs": [],
      "stateMutability": "payable",
      "type": "function"
    }
  ],
  "bytecode": "0x608060405266038d7ea4c68000600a55662386f26fc10000600b5561012c600c553480156200002d57600080fd5b506200004e620000426200005460201b60201c565b6200005c60201b60201c565b62000120565b600033905090565b60008060009054906101000a900473ffffffffffffffffffffffffffffffffffffffff169050816000806101000a81548173ffffffffffffffffffffffffffffffffffffffff021916908373ffffffffffffffffffffffffffffffffffffffff1602179055508173ffffffffffffffffffffffffffffffffffffffff168173ffffffffffffffffffffffffffffffffffffffff167f8be0079c531659141344cd1fd0a4f28419497f9722a3daafe3b4186f6b6457e060405160405180910390a35050565b61296a80620001306000396000f3fe6080604052600436106100a75760003560e01c8063715018a611610064578063715018a61461019f5780638da5cb5b146101b65780639c5ac250146101e1578063ba87768c146101fd578063e92af9c714610219578063f2fde38b14610242576100a7565b80630b791430146100ac5780630e66a2fb146100f157806331ac99201461011a578063464c5b6c14610143578063476343ee1461015f578063710e5d2f14610176575b600080fd5b3480156100b857600080fd5b506100d360048036038101906100ce91906118c2565b61026b565b6040516100e899989796959493929190611cf0565b60405180910390f35b3480156100fd57600080fd5b50610118600480360381019061011391906118ef565b6103f3565b005b34801561012657600080fd5b50610141600480360381019061013c91906118c2565b61060a565b005b61015d600480360381019061015891906118c2565b610690565b005b34801561016b57600080fd5b50610174610973565b005b34801561018257600080fd5b5061019d600480360381019061019891906118c2565b610aa4565b005b3480156101ab57600080fd5b506101b4610b2a565b005b3480156101c257600080fd5b506101cb610bb2565b6040516101d89190611cd5565b60405180910390f35b6101fb60048036038101906101f6919061180f565b610bdb565b005b6102176004803603810190610212919061192f565b610f36565b005b34801561022557600080fd5b50610240600480360381019061023b91906118c2565b611281565b005b34801561024e57600080fd5b50610269600480360381019061026491906117e2565b611359565b005b6002818154811061027b57600080fd5b90600052602060002090600802016000915090508060000154908060010180546102a490612311565b80601f01602080910402602001604051908101604052809291908181526020018280546102d090612311565b801561031d5780601f106102f25761010080835404028352916020019161031d565b820191906000526020600020905b81548152906001019060200180831161030057829003601f168201915b50505050509080600201805461033290612311565b80601f016020809104026020016040519081016040528092919081815260200182805461035e90612311565b80156103ab5780601f10610380576101008083540402835291602001916103ab565b820191906000526020600020905b81548152906001019060200180831161038e57829003601f168201915b5050505050908060030154908060040154908060050154908060060154908060070160009054906101000a900460ff16908060070160019054906101000a900460ff16905089565b816000600281111561040857610407612435565b5b6002828154811061041c5761041b612493565b5b906000526020600020906008020160070160009054906101000a900460ff16600281111561044d5761044c612435565b5b1461048d576040517f08c379a000000000000000000000000000000000000000000000000000000000815260040161048490611e0b565b60405180910390fd5b826006600082815260200190815260200160002060009054906101000a900473ffffffffffffffffffffffffffffffffffffffff1673ffffffffffffffffffffffffffffffffffffffff163373ffffffffffffffffffffffffffffffffffffffff161461052f576040517f08c379a000000000000000000000000000000000000000000000000000000000815260040161052690611e8b565b60405180910390fd5b60076000858152602001908152602001600020839080600181540180825580915050600190039060005260206000200160009091909190916101000a81548173ffffffffffffffffffffffffffffffffffffffff021916908373ffffffffffffffffffffffffffffffffffffffff1602179055507f94ef53e7db123adbcdfca5356f9d0503e88e4d11d66e74b2713f5b27d9c5a60e84600286815481106105d9576105d8612493565b5b906000526020600020906008020160010133866040516105fc9493929190611f8c565b60405180910390a150505050565b610612611451565b73ffffffffffffffffffffffffffffffffffffffff16610630610bb2565b73ffffffffffffffffffffffffffffffffffffffff1614610686576040517f08c379a000000000000000000000000000000000000000000000000000000000815260040161067d90611e2b565b60405180910390fd5b80600a8190555050565b80600060028111156106a5576106a4612435565b5b600282815481106106b9576106b8612493565b5b906000526020600020906008020160070160009054906101000a900460ff1660028111156106ea576106e9612435565b5b1461072a576040517f08c379a000000000000000000000000000000000000000000000000000000000815260040161072190611e0b565b60405180910390fd5b81600080600760008481526020019081526020016000208054806020026020016040519081016040528092919081815260200182805480156107c157602002820191906000526020600020905b8160009054906101000a900473ffffffffffffffffffffffffffffffffffffffff1673ffffffffffffffffffffffffffffffffffffffff1681526020019060010190808311610777575b5050505050905060005b815181101561083a573373ffffffffffffffffffffffffffffffffffffffff168282815181106107fe576107fd612493565b5b602002602001015173ffffffffffffffffffffffffffffffffffffffff16141561082757600192505b80806108329061238e565b9150506107cb565b508161087b576040517f08c379a000000000000000000000000000000000000000000000000000000000815260040161087290611e4b565b60405180910390fd5b6002858154811061088f5761088e612493565b5b90600052602060002090600802016006015434146108e2576040517f08c379a00000000000000000000000000000000000000000000000000000000081526004016108d990611f0b565b60405180910390fd5b6108ec8534611459565b6108f685336114fc565b7f0c6a69959e047459e430b130691a13fba617e0ed6d8f29ff7e802d2051f39c6c856002878154811061092c5761092b612493565b5b906000526020600020906008020160010133600360008a81526020019081526020016000206000604051610964959493929190611fd8565b60405180910390a15050505050565b61097b611451565b73ffffffffffffffffffffffffffffffffffffffff16610999610bb2565b73ffffffffffffffffffffffffffffffffffffffff16146109ef576040517f08c379a00000000000000000000000000000000000000000000000000000000081526004016109e690611e2b565b60405180910390fd5b6001543073ffffffffffffffffffffffffffffffffffffffff163111610a4a576040517f08c379a0000000000000000000000000000000000000000000000000000000008152600401610a4190611e6b565b60405180910390fd5b610a52610bb2565b73ffffffffffffffffffffffffffffffffffffffff166108fc6001549081150290604051600060405180830381858888f19350505050158015610a99573d6000803e3d6000fd5b506000600181905550565b610aac611451565b73ffffffffffffffffffffffffffffffffffffffff16610aca610bb2565b73ffffffffffffffffffffffffffffffffffffffff1614610b20576040517f08c379a0000000000000000000000000000000000000000000000000000000008152600401610b1790611e2b565b60405180910390fd5b80600b8190555050565b610b32611451565b73ffffffffffffffffffffffffffffffffffffffff16610b50610bb2565b73ffffffffffffffffffffffffffffffffffffffff1614610ba6576040517f08c379a0000000000000000000000000000000000000000000000000000000008152600401610b9d90611e2b565b60405180910390fd5b610bb06000611574565b565b60008060009054906101000a900473ffffffffffffffffffffffffffffffffffffffff16905090565b6301dfe20042610beb91906120fe565b8110610c2c576040517f08c379a0000000000000000000000000000000000000000000000000000000008152600401610c2390611ecb565b60405180910390fd5b61a8c042610c3a91906120fe565b811015610c7c576040517f08c379a0000000000000000000000000000000000000000000000000000000008152600401610c7390611deb565b60405180910390fd5b600a54341015610cc1576040517f08c379a0000000000000000000000000000000000000000000000000000000008152600401610cb890611eeb565b60405180910390fd5b600b54341115610d06576040517f08c379a0000000000000000000000000000000000000000000000000000000008152600401610cfd90611dcb565b60405180910390fd5b600060405180610120016040528087815260200186815260200185815260200184815260200142815260200183815260200134815260200160006002811115610d5257610d51612435565b5b815260200160006002811115610d6b57610d6a612435565b5b81525090506002819080600181540180825580915050600190039060005260206000209060080201600090919091909150600082015181600001556020820151816001019080519060200190610dc2929190611690565b506040820151816002019080519060200190610ddf929190611690565b50606082015181600301556080820151816004015560a0820151816005015560c0820151816006015560e08201518160070160006101000a81548160ff02191690836002811115610e3357610e32612435565b5b02179055506101008201518160070160016101000a81548160ff02191690836002811115610e6457610e63612435565b5b021790555050506000610e86600160028054905061163890919063ffffffff16565b9050336006600083815260200190815260200160002060006101000a81548173ffffffffffffffffffffffffffffffffffffffff021916908373ffffffffffffffffffffffffffffffffffffffff160217905550610ee481336114fc565b610eee8134611459565b7f04be756dec315957cd509516327ecd7d757020384f12439c43676bc9b9ef99958187878633604051610f25959493929190611f2b565b60405180910390a150505050505050565b8160006002811115610f4b57610f4a612435565b5b60028281548110610f5f57610f5e612493565b5b906000526020600020906008020160070160009054906101000a900460ff166002811115610f9057610f8f612435565b5b14610fd0576040517f08c379a0000000000000000000000000000000000000000000000000000000008152600401610fc790611e0b565b60405180910390fd5b826000806007600084815260200190815260200160002080548060200260200160405190810160405280929190818152602001828054801561106757602002820191906000526020600020905b8160009054906101000a900473ffffffffffffffffffffffffffffffffffffffff1673ffffffffffffffffffffffffffffffffffffffff168152602001906001019080831161101d575b5050505050905060005b81518110156110e0573373ffffffffffffffffffffffffffffffffffffffff168282815181106110a4576110a3612493565b5b602002602001015173ffffffffffffffffffffffffffffffffffffffff1614156110cd57600192505b80806110d89061238e565b915050611071565b5081611121576040517f08c379a000000000000000000000000000000000000000000000000000000000815260040161111890611e4b565b60405180910390fd5b6002868154811061113557611134612493565b5b9060005260206000209060080201600001548514611188576040517f08c379a000000000000000000000000000000000000000000000000000000000815260040161117f90611d8b565b60405180910390fd5b6002868154811061119c5761119b612493565b5b90600052602060002090600802016006015434146111ef576040517f08c379a00000000000000000000000000000000000000000000000000000000081526004016111e690611f0b565b60405180910390fd5b6111f98634611459565b61120386336114fc565b7f0c6a69959e047459e430b130691a13fba617e0ed6d8f29ff7e802d2051f39c6c866002888154811061123957611238612493565b5b906000526020600020906008020160010133600360008b81526020019081526020016000206001604051611271959493929190611fd8565b60405180910390a1505050505050565b611289611451565b73ffffffffffffffffffffffffffffffffffffffff166112a7610bb2565b73ffffffffffffffffffffffffffffffffffffffff16146112fd576040517f08c379a00000000000000000000000000000000000000000000000000000000081526004016112f490611e2b565b60405180910390fd5b6000811015801561131057506127108111155b61134f576040517f08c379a000000000000000000000000000000000000000000000000000000000815260040161134690611eab565b60405180910390fd5b80600c8190555050565b611361611451565b73ffffffffffffffffffffffffffffffffffffffff1661137f610bb2565b73ffffffffffffffffffffffffffffffffffffffff16146113d5576040517f08c379a00000000000000000000000000000000000000000000000000000000081526004016113cc90611e2b565b60405180910390fd5b600073ffffffffffffffffffffffffffffffffffffffff168173ffffffffffffffffffffffffffffffffffffffff161415611445576040517f08c379a000000000000000000000000000000000000000000000000000000000815260040161143c90611dab565b60405180910390fd5b61144e81611574565b50565b600033905090565b6000611472612710600c5461164e90919063ffffffff16565b90506000611489828461166490919063ffffffff16565b905060006114a0828561163890919063ffffffff16565b90506114b78260015461167a90919063ffffffff16565b506114de81600460008881526020019081526020016000205461167a90919063ffffffff16565b60046000878152602001908152602001600020819055505050505050565b60036000838152602001908152602001600020819080600181540180825580915050600190039060005260206000200160009091909190916101000a81548173ffffffffffffffffffffffffffffffffffffffff021916908373ffffffffffffffffffffffffffffffffffffffff1602179055505050565b60008060009054906101000a900473ffffffffffffffffffffffffffffffffffffffff169050816000806101000a81548173ffffffffffffffffffffffffffffffffffffffff021916908373ffffffffffffffffffffffffffffffffffffffff1602179055508173ffffffffffffffffffffffffffffffffffffffff168173ffffffffffffffffffffffffffffffffffffffff167f8be0079c531659141344cd1fd0a4f28419497f9722a3daafe3b4186f6b6457e060405160405180910390a35050565b6000818361164691906121df565b905092915050565b6000818361165c9190612154565b905092915050565b600081836116729190612185565b905092915050565b6000818361168891906120fe565b905092915050565b82805461169c90612311565b90600052602060002090601f0160209004810192826116be5760008555611705565b82601f106116d757805160ff1916838001178555611705565b82800160010185558215611705579182015b828111156117045782518255916020019190600101906116e9565b5b5090506117129190611716565b5090565b5b8082111561172f576000816000905550600101611717565b5090565b60006117466117418461205e565b612039565b90508281526020810184848401111561176257611761612509565b5b61176d8482856122cf565b509392505050565b600081359050611784816128ef565b92915050565b60008135905061179981612906565b92915050565b600082601f8301126117b4576117b3612504565b5b81356117c4848260208601611733565b91505092915050565b6000813590506117dc8161291d565b92915050565b6000602082840312156117f8576117f7612513565b5b600061180684828501611775565b91505092915050565b600080600080600060a0868803121561182b5761182a612513565b5b60006118398882890161178a565b955050602086013567ffffffffffffffff81111561185a5761185961250e565b5b6118668882890161179f565b945050604086013567ffffffffffffffff8111156118875761188661250e565b5b6118938882890161179f565b93505060606118a4888289016117cd565b92505060806118b5888289016117cd565b9150509295509295909350565b6000602082840312156118d8576118d7612513565b5b60006118e6848285016117cd565b91505092915050565b6000806040838503121561190657611905612513565b5b6000611914858286016117cd565b925050602061192585828601611775565b9150509250929050565b6000806040838503121561194657611945612513565b5b6000611954858286016117cd565b92505060206119658582860161178a565b9150509250929050565b600061197b8383611987565b60208301905092915050565b61199081612233565b82525050565b61199f81612233565b82525050565b60006119b0826120b9565b6119ba81856120dc565b93506119c58361208f565b8060005b838110156119fd576119da826124f1565b6119e4888261196f565b97506119ef836120cf565b9250506001810190506119c9565b5085935050505092915050565b611a1381612245565b82525050565b611a2281612251565b82525050565b611a31816122ab565b82525050565b611a40816122bd565b82525050565b6000611a51826120c4565b611a5b81856120ed565b9350611a6b8185602086016122de565b611a7481612518565b840191505092915050565b60008154611a8c81612311565b611a9681866120ed565b94506001821660008114611ab15760018114611ac357611af6565b60ff1983168652602086019350611af6565b611acc856120a4565b60005b83811015611aee57815481890152600182019150602081019050611acf565b808801955050505b50505092915050565b6000611b0c6014836120ed565b9150611b1782612536565b602082019050919050565b6000611b2f6026836120ed565b9150611b3a8261255f565b604082019050919050565b6000611b526033836120ed565b9150611b5d826125ae565b604082019050919050565b6000611b75603d836120ed565b9150611b80826125fd565b604082019050919050565b6000611b986022836120ed565b9150611ba38261264c565b604082019050919050565b6000611bbb6020836120ed565b9150611bc68261269b565b602082019050919050565b6000611bde6035836120ed565b9150611be9826126c4565b604082019050919050565b6000611c01601e836120ed565b9150611c0c82612713565b602082019050919050565b6000611c246033836120ed565b9150611c2f8261273c565b604082019050919050565b6000611c476021836120ed565b9150611c528261278b565b604082019050919050565b6000611c6a603b836120ed565b9150611c75826127da565b604082019050919050565b6000611c8d6036836120ed565b9150611c9882612829565b604082019050919050565b6000611cb0603f836120ed565b9150611cbb82612878565b604082019050919050565b611ccf816122a1565b82525050565b6000602082019050611cea6000830184611996565b92915050565b600061012082019050611d06600083018c611a19565b8181036020830152611d18818b611a46565b90508181036040830152611d2c818a611a46565b9050611d3b6060830189611cc6565b611d486080830188611cc6565b611d5560a0830187611cc6565b611d6260c0830186611cc6565b611d6f60e0830185611a37565b611d7d610100830184611a28565b9a9950505050505050505050565b60006020820190508181036000830152611da481611aff565b9050919050565b60006020820190508181036000830152611dc481611b22565b9050919050565b60006020820190508181036000830152611de481611b45565b9050919050565b60006020820190508181036000830152611e0481611b68565b9050919050565b60006020820190508181036000830152611e2481611b8b565b9050919050565b60006020820190508181036000830152611e4481611bae565b9050919050565b60006020820190508181036000830152611e6481611bd1565b9050919050565b60006020820190508181036000830152611e8481611bf4565b9050919050565b60006020820190508181036000830152611ea481611c17565b9050919050565b60006020820190508181036000830152611ec481611c3a565b9050919050565b60006020820190508181036000830152611ee481611c5d565b9050919050565b60006020820190508181036000830152611f0481611c80565b9050919050565b60006020820190508181036000830152611f2481611ca3565b9050919050565b600060a082019050611f406000830188611cc6565b8181036020830152611f528187611a46565b90508181036040830152611f668186611a46565b9050611f756060830185611cc6565b611f826080830184611996565b9695505050505050565b6000608082019050611fa16000830187611cc6565b8181036020830152611fb38186611a7f565b9050611fc26040830185611996565b611fcf6060830184611996565b95945050505050565b600060a082019050611fed6000830188611cc6565b8181036020830152611fff8187611a7f565b905061200e6040830186611996565b818103606083015261202081856119a5565b905061202f6080830184611a0a565b9695505050505050565b6000612043612054565b905061204f828261235d565b919050565b6000604051905090565b600067ffffffffffffffff821115612079576120786124c2565b5b61208282612518565b9050602081019050919050565b60008190508160005260206000209050919050565b60008190508160005260206000209050919050565b600081549050919050565b600081519050919050565b6000600182019050919050565b600082825260208201905092915050565b600082825260208201905092915050565b6000612109826122a1565b9150612114836122a1565b9250827fffffffffffffffffffffffffffffffffffffffffffffffffffffffffffffffff03821115612149576121486123d7565b5b828201905092915050565b600061215f826122a1565b915061216a836122a1565b92508261217a57612179612406565b5b828204905092915050565b6000612190826122a1565b915061219b836122a1565b9250817fffffffffffffffffffffffffffffffffffffffffffffffffffffffffffffffff04831182151516156121d4576121d36123d7565b5b828202905092915050565b60006121ea826122a1565b91506121f5836122a1565b925082821015612208576122076123d7565b5b828203905092915050565b600073ffffffffffffffffffffffffffffffffffffffff82169050919050565b600061223e82612281565b9050919050565b60008115159050919050565b6000819050919050565b6000819050612269826128c7565b919050565b600081905061227c826128db565b919050565b600073ffffffffffffffffffffffffffffffffffffffff82169050919050565b6000819050919050565b60006122b68261225b565b9050919050565b60006122c88261226e565b9050919050565b82818337600083830152505050565b60005b838110156122fc5780820151818401526020810190506122e1565b8381111561230b576000848401525b50505050565b6000600282049050600182168061232957607f821691505b6020821081141561233d5761233c612464565b5b50919050565b600061235661235183612529565b612213565b9050919050565b61236682612518565b810181811067ffffffffffffffff82111715612385576123846124c2565b5b80604052505050565b6000612399826122a1565b91507fffffffffffffffffffffffffffffffffffffffffffffffffffffffffffffffff8214156123cc576123cb6123d7565b5b600182019050919050565b7f4e487b7100000000000000000000000000000000000000000000000000000000600052601160045260246000fd5b7f4e487b7100000000000000000000000000000000000000000000000000000000600052601260045260246000fd5b7f4e487b7100000000000000000000000000000000000000000000000000000000600052602160045260246000fd5b7f4e487b7100000000000000000000000000000000000000000000000000000000600052602260045260246000fd5b7f4e487b7100000000000000000000000000000000000000000000000000000000600052603260045260246000fd5b7f4e487b7100000000000000000000000000000000000000000000000000000000600052604160045260246000fd5b60006124fd8254612343565b9050919050565b600080fd5b600080fd5b600080fd5b600080fd5b6000601f19601f8301169050919050565b60008160001c9050919050565b7f496e636f7272656374206a6f696e20636f64652e000000000000000000000000600082015250565b7f4f776e61626c653a206e6577206f776e657220697320746865207a65726f206160008201527f6464726573730000000000000000000000000000000000000000000000000000602082015250565b7f457363726f7720616d6f756e7420746f6f206c617267652e20506c656173652060008201527f6465637265617365206974732076616c75652e00000000000000000000000000602082015250565b7f44617465206f66206576656e74206d7573742062652061746c6561737420313260008201527f20686f7572732066726f6d207468652070726573656e742074696d652e000000602082015250565b7f4974206973206e6f7420746865206576656e7420696e7669746520706572696f60008201527f642e000000000000000000000000000000000000000000000000000000000000602082015250565b7f4f776e61626c653a2063616c6c6572206973206e6f7420746865206f776e6572600082015250565b7f4f6e6c7920616e20696e7669746565206f662074686973206576656e7420636160008201527f6e2063616c6c20746869732066756e6374696f6e2e0000000000000000000000602082015250565b7f436f6e74726163742062616c616e636520696e73756666696369656e742e0000600082015250565b7f4f6e6c792074686520686f7374206f662074686973206576656e742063616e2060008201527f63616c6c20746869732066756e6374696f6e2e00000000000000000000000000602082015250565b7f496e76616c6964206f7065726174696e67206665652070657263656e7461676560008201527f2e00000000000000000000000000000000000000000000000000000000000000602082015250565b7f44617465206f66206576656e74206d757374206e6f742065786365656420312060008201527f796561722066726f6d207468652070726573656e742074696d652e0000000000602082015250565b7f457363726f7720616d6f756e7420696e73756666696369656e742e20506c656160008201527f736520696e637265617365206974732076616c75652e00000000000000000000602082015250565b7f496e636f727265637420657363726f7720616d6f756e742e20506c656173652060008201527f7573652074686520657861637420616d6f756e74207370656369666965642e00602082015250565b600381106128d8576128d7612435565b5b50565b600381106128ec576128eb612435565b5b50565b6128f881612233565b811461290357600080fd5b50565b61290f81612251565b811461291a57600080fd5b50565b612926816122a1565b811461293157600080fd5b5056fea2646970667358221220f34e48f030a21fdff849252eb22f92506eba765e9bea2bc8910763128d8b132d64736f6c63430008060033",
  "immutableReferences": {},
  "source": "pragma solidity ^0.8.0;\n\nimport \"./EventCreation.sol\";\nimport \"@openzeppelin/contracts/utils/math/SafeMath.sol\";\n\ncontract EventInvite is EventCreation {\n\n    using SafeMath for uint256;\n    using SafeMath for uint32;\n    using SafeMath for uint16;\n\n    // EVENTS\n    event UserInvited(\n        uint256 eventId,\n        string name,\n        address host,\n        address invited\n    );\n\n    // Either accepted invite or used join code.\n    event UserJoined(\n        uint256 eventId,\n        string name,\n        address acceptedUser,\n        address[] attendees,\n        bool joinedByCode\n    );\n\n    // MODIFIERS\n    modifier eventInvitePeriod(uint _eventId) {\n        require(events[_eventId].state == State.BEFORE_EVENT, 'It is not the event invite period.');\n        _;\n    }\n\n    modifier onlyHost(uint _eventId) {\n        require(msg.sender == eventToHost[_eventId], \"Only the host of this event can call this function.\");\n        _;\n    }\n\n    modifier onlyInvitee(uint _eventId) {\n        // The below may error out. Trying to shallow copy arr.\n        // Memory arrs need a fixed length.\n        bool isInvitee = false;\n        address[] memory invitees = eventToInvitees[_eventId];\n\n        for (uint i = 0; i < invitees.length; i++) {\n            if (invitees[i] == msg.sender) {\n                isInvitee = true;\n            }\n        }\n\n        require(isInvitee, \"Only an invitee of this event can call this function.\");\n        _;\n    }\n\n    // RECEIVE (IF EXISTS)\n\n    // FALLBACK (IF EXISTS)\n\n    // EXTERNAL\n\n    // PUBLIC\n    // NEED: 1.) Invite period 2.) Be Invitee 3.) Correct msg.value 4.) Accounting 5.) Add attendee 6.) emit event\n    function acceptInvitation(uint _eventId) public payable eventInvitePeriod(_eventId) onlyInvitee(_eventId) {\n        require(msg.value == events[_eventId].fee, \"Incorrect escrow amount. Please use the exact amount specified.\");\n\n        _eventAccounting(_eventId, msg.value);\n        _addAttendeeToEvent(_eventId, msg.sender);\n        emit UserJoined(_eventId, events[_eventId].name, msg.sender, eventToAttendees[_eventId], false);\n    }\n\n    // NEED: 1.) Invite Period 2.) Be Host\n    function inviteUser(uint _eventId, address _invited) public eventInvitePeriod(_eventId) onlyHost(_eventId) {\n        eventToInvitees[_eventId].push(_invited);\n        emit UserInvited(_eventId, events[_eventId].name, msg.sender, _invited);\n    }\n\n    // Users can also join events if they have the correct join code without being invited first.\n    // Though we hash before we store the password, the first user who enters the passcode will reveal it.\n    // This is more of a UX feature to safeguard against users accidentally signing up for the wrong event.\n    // Because of this, we also check if the user is an invitee of the event. That way, not just anyone can use the password once revealed.\n    // NEED: 1.) Invite period 2.) Is an Invitee 3.) Correct join code 4.) Correct msg.value\n    function joinEventByInviteCode(uint _eventId, bytes32 _inviteCode) public payable eventInvitePeriod(_eventId) onlyInvitee(_eventId) {\n        require(_inviteCode == events[_eventId].code, \"Incorrect join code.\");\n        require(msg.value == events[_eventId].fee, \"Incorrect escrow amount. Please use the exact amount specified.\");\n\n        _eventAccounting(_eventId, msg.value);\n        _addAttendeeToEvent(_eventId, msg.sender);\n        emit UserJoined(_eventId, events[_eventId].name, msg.sender, eventToAttendees[_eventId], true);\n    }\n\n\n    // INTERNAL\n    // PRIVATE\n\n}",
  "sourcePath": "/Users/griff/Desktop/pintnight/src/contracts/EventInvite.sol",
  "compiler": {
    "name": "solc",
    "version": "0.8.6+commit.11564f7e.Emscripten.clang"
  },
  "schemaVersion": "3.4.1",
  "updatedAt": "2021-08-03T06:27:38.865Z",
  "devdoc": {
    "kind": "dev",
    "methods": {
      "owner()": {
        "details": "Returns the address of the current owner."
      },
      "renounceOwnership()": {
        "details": "Leaves the contract without owner. It will not be possible to call `onlyOwner` functions anymore. Can only be called by the current owner. NOTE: Renouncing ownership will leave the contract without an owner, thereby removing any functionality that is only available to the owner."
      },
      "transferOwnership(address)": {
        "details": "Transfers ownership of the contract to a new account (`newOwner`). Can only be called by the current owner."
      }
    },
    "version": 1
  },
  "userdoc": {
    "kind": "user",
    "methods": {},
    "version": 1
  }
}