{
  "contractName": "EventFinish",
  "abi": [
    {
      "anonymous": false,
      "inputs": [
        {
          "indexed": false,
          "internalType": "string",
          "name": "eventName",
          "type": "string"
        },
        {
          "indexed": false,
          "internalType": "string",
          "name": "location",
          "type": "string"
        },
        {
          "indexed": false,
          "internalType": "address",
          "name": "userAddress",
          "type": "address"
        },
        {
          "indexed": false,
          "internalType": "uint256",
          "name": "checkInTime",
          "type": "uint256"
        }
      ],
      "name": "CheckIn",
      "type": "event"
    },
    {
      "anonymous": false,
      "inputs": [
        {
          "indexed": false,
          "internalType": "string",
          "name": "eventName",
          "type": "string"
        },
        {
          "indexed": false,
          "internalType": "string",
          "name": "location",
          "type": "string"
        },
        {
          "indexed": false,
          "internalType": "address",
          "name": "userAddress",
          "type": "address"
        },
        {
          "indexed": false,
          "internalType": "uint256",
          "name": "stateTransitionTime",
          "type": "uint256"
        },
        {
          "indexed": false,
          "internalType": "uint256",
          "name": "eventDate",
          "type": "uint256"
        }
      ],
      "name": "EventStarted",
      "type": "event"
    },
    {
      "anonymous": false,
      "inputs": [
        {
          "indexed": false,
          "internalType": "string",
          "name": "name",
          "type": "string"
        },
        {
          "indexed": false,
          "internalType": "string",
          "name": "location",
          "type": "string"
        },
        {
          "indexed": false,
          "internalType": "uint256",
          "name": "eventDate",
          "type": "uint256"
        },
        {
          "indexed": false,
          "internalType": "uint256",
          "name": "stateTransitionTime",
          "type": "uint256"
        }
      ],
      "name": "FailedEvent",
      "type": "event"
    },
    {
      "anonymous": false,
      "inputs": [
        {
          "indexed": false,
          "internalType": "uint256",
          "name": "eventId",
          "type": "uint256"
        },
        {
          "indexed": false,
          "internalType": "string",
          "name": "name",
          "type": "string"
        },
        {
          "indexed": false,
          "internalType": "string",
          "name": "location",
          "type": "string"
        },
        {
          "indexed": false,
          "internalType": "uint256",
          "name": "date",
          "type": "uint256"
        },
        {
          "indexed": false,
          "internalType": "address",
          "name": "host",
          "type": "address"
        }
      ],
      "name": "NewEvent",
      "type": "event"
    },
    {
      "anonymous": false,
      "inputs": [
        {
          "indexed": true,
          "internalType": "address",
          "name": "previousOwner",
          "type": "address"
        },
        {
          "indexed": true,
          "internalType": "address",
          "name": "newOwner",
          "type": "address"
        }
      ],
      "name": "OwnershipTransferred",
      "type": "event"
    },
    {
      "anonymous": false,
      "inputs": [
        {
          "indexed": false,
          "internalType": "string",
          "name": "eventName",
          "type": "string"
        },
        {
          "indexed": false,
          "internalType": "address",
          "name": "userAddress",
          "type": "address"
        }
      ],
      "name": "PintWinner",
      "type": "event"
    },
    {
      "anonymous": false,
      "inputs": [
        {
          "indexed": false,
          "internalType": "uint256",
          "name": "eventId",
          "type": "uint256"
        },
        {
          "indexed": false,
          "internalType": "string",
          "name": "name",
          "type": "string"
        },
        {
          "indexed": false,
          "internalType": "address",
          "name": "host",
          "type": "address"
        },
        {
          "indexed": false,
          "internalType": "address",
          "name": "invited",
          "type": "address"
        }
      ],
      "name": "UserInvited",
      "type": "event"
    },
    {
      "anonymous": false,
      "inputs": [
        {
          "indexed": false,
          "internalType": "uint256",
          "name": "eventId",
          "type": "uint256"
        },
        {
          "indexed": false,
          "internalType": "string",
          "name": "name",
          "type": "string"
        },
        {
          "indexed": false,
          "internalType": "address",
          "name": "acceptedUser",
          "type": "address"
        },
        {
          "indexed": false,
          "internalType": "address[]",
          "name": "attendees",
          "type": "address[]"
        },
        {
          "indexed": false,
          "internalType": "bool",
          "name": "joinedByCode",
          "type": "bool"
        }
      ],
      "name": "UserJoined",
      "type": "event"
    },
    {
      "inputs": [
        {
          "internalType": "uint256",
          "name": "_eventId",
          "type": "uint256"
        }
      ],
      "name": "acceptInvitation",
      "outputs": [],
      "stateMutability": "payable",
      "type": "function"
    },
    {
      "inputs": [
        {
          "internalType": "uint256",
          "name": "_eventId",
          "type": "uint256"
        }
      ],
      "name": "checkInForEvent",
      "outputs": [],
      "stateMutability": "nonpayable",
      "type": "function"
    },
    {
      "inputs": [
        {
          "internalType": "uint256",
          "name": "",
          "type": "uint256"
        }
      ],
      "name": "events",
      "outputs": [
        {
          "internalType": "bytes32",
          "name": "code",
          "type": "bytes32"
        },
        {
          "internalType": "string",
          "name": "name",
          "type": "string"
        },
        {
          "internalType": "string",
          "name": "location",
          "type": "string"
        },
        {
          "internalType": "uint256",
          "name": "coordinates",
          "type": "uint256"
        },
        {
          "internalType": "uint256",
          "name": "created",
          "type": "uint256"
        },
        {
          "internalType": "uint256",
          "name": "date",
          "type": "uint256"
        },
        {
          "internalType": "uint256",
          "name": "fee",
          "type": "uint256"
        },
        {
          "internalType": "enum PintNight.State",
          "name": "state",
          "type": "uint8"
        },
        {
          "internalType": "enum PintNight.Result",
          "name": "result",
          "type": "uint8"
        }
      ],
      "stateMutability": "view",
      "type": "function"
    },
    {
      "inputs": [
        {
          "internalType": "bytes32",
          "name": "_code",
          "type": "bytes32"
        },
        {
          "internalType": "string",
          "name": "_name",
          "type": "string"
        },
        {
          "internalType": "string",
          "name": "_location",
          "type": "string"
        },
        {
          "internalType": "uint256",
          "name": "_coordinates",
          "type": "uint256"
        },
        {
          "internalType": "uint256",
          "name": "_date",
          "type": "uint256"
        }
      ],
      "name": "initEvent",
      "outputs": [],
      "stateMutability": "payable",
      "type": "function"
    },
    {
      "inputs": [
        {
          "internalType": "uint256",
          "name": "_eventId",
          "type": "uint256"
        },
        {
          "internalType": "address",
          "name": "_invited",
          "type": "address"
        }
      ],
      "name": "inviteUser",
      "outputs": [],
      "stateMutability": "nonpayable",
      "type": "function"
    },
    {
      "inputs": [
        {
          "internalType": "uint256",
          "name": "_eventId",
          "type": "uint256"
        },
        {
          "internalType": "bytes32",
          "name": "_inviteCode",
          "type": "bytes32"
        }
      ],
      "name": "joinEventByInviteCode",
      "outputs": [],
      "stateMutability": "payable",
      "type": "function"
    },
    {
      "inputs": [],
      "name": "owner",
      "outputs": [
        {
          "internalType": "address",
          "name": "",
          "type": "address"
        }
      ],
      "stateMutability": "view",
      "type": "function"
    },
    {
      "inputs": [],
      "name": "renounceOwnership",
      "outputs": [],
      "stateMutability": "nonpayable",
      "type": "function"
    },
    {
      "inputs": [
        {
          "internalType": "uint256",
          "name": "_eventId",
          "type": "uint256"
        }
      ],
      "name": "rollCall",
      "outputs": [],
      "stateMutability": "nonpayable",
      "type": "function"
    },
    {
      "inputs": [
        {
          "internalType": "uint256",
          "name": "_newMaxFee",
          "type": "uint256"
        }
      ],
      "name": "setMaxFee",
      "outputs": [],
      "stateMutability": "nonpayable",
      "type": "function"
    },
    {
      "inputs": [
        {
          "internalType": "uint256",
          "name": "_newMinFee",
          "type": "uint256"
        }
      ],
      "name": "setMinFee",
      "outputs": [],
      "stateMutability": "nonpayable",
      "type": "function"
    },
    {
      "inputs": [
        {
          "internalType": "uint256",
          "name": "_percentage",
          "type": "uint256"
        }
      ],
      "name": "setOperatingFeePercentage",
      "outputs": [],
      "stateMutability": "nonpayable",
      "type": "function"
    },
    {
      "inputs": [
        {
          "internalType": "address",
          "name": "newOwner",
          "type": "address"
        }
      ],
      "name": "transferOwnership",
      "outputs": [],
      "stateMutability": "nonpayable",
      "type": "function"
    },
    {
      "inputs": [],
      "name": "withdrawFees",
      "outputs": [],
      "stateMutability": "nonpayable",
      "type": "function"
    },
    {
      "inputs": [
        {
          "internalType": "uint256",
          "name": "_eventId",
          "type": "uint256"
        }
      ],
      "name": "decideWinner",
      "outputs": [],
      "stateMutability": "nonpayable",
      "type": "function"
    },
    {
      "inputs": [
        {
          "internalType": "uint256",
          "name": "_eventId",
          "type": "uint256"
        }
      ],
      "name": "withdrawEventFee",
      "outputs": [],
      "stateMutability": "nonpayable",
      "type": "function"
    }
  ],
  "bytecode": "0x608060405266038d7ea4c68000600a55662386f26fc10000600b5561012c600c556000600d553480156200003257600080fd5b5062000053620000476200005960201b60201c565b6200006160201b60201c565b62000125565b600033905090565b60008060009054906101000a900473ffffffffffffffffffffffffffffffffffffffff169050816000806101000a81548173ffffffffffffffffffffffffffffffffffffffff021916908373ffffffffffffffffffffffffffffffffffffffff1602179055508173ffffffffffffffffffffffffffffffffffffffff168173ffffffffffffffffffffffffffffffffffffffff167f8be0079c531659141344cd1fd0a4f28419497f9722a3daafe3b4186f6b6457e060405160405180910390a35050565b6147fd80620001356000396000f3fe6080604052600436106100f35760003560e01c8063710e5d2f1161008a578063ba87768c11610059578063ba87768c146102c4578063baeec0b7146102e0578063e92af9c714610309578063f2fde38b14610332576100f3565b8063710e5d2f1461023d578063715018a6146102665780638da5cb5b1461027d5780639c5ac250146102a8576100f3565b806338ed0630116100c657806338ed0630146101b85780633b68afc2146101e1578063464c5b6c1461020a578063476343ee14610226576100f3565b80630b791430146100f85780630e66a2fb1461013d5780632cb0dd141461016657806331ac99201461018f575b600080fd5b34801561010457600080fd5b5061011f600480360381019061011a91906130b7565b61035b565b60405161013499989796959493929190613668565b60405180910390f35b34801561014957600080fd5b50610164600480360381019061015f91906130e4565b6104e3565b005b34801561017257600080fd5b5061018d600480360381019061018891906130b7565b6106fa565b005b34801561019b57600080fd5b506101b660048036038101906101b191906130b7565b610af0565b005b3480156101c457600080fd5b506101df60048036038101906101da91906130b7565b610b76565b005b3480156101ed57600080fd5b50610208600480360381019061020391906130b7565b611001565b005b610224600480360381019061021f91906130b7565b611901565b005b34801561023257600080fd5b5061023b611be4565b005b34801561024957600080fd5b50610264600480360381019061025f91906130b7565b611d15565b005b34801561027257600080fd5b5061027b611d9b565b005b34801561028957600080fd5b50610292611e23565b60405161029f919061364d565b60405180910390f35b6102c260048036038101906102bd9190613004565b611e4c565b005b6102de60048036038101906102d99190613124565b6121a7565b005b3480156102ec57600080fd5b50610307600480360381019061030291906130b7565b6124f2565b005b34801561031557600080fd5b50610330600480360381019061032b91906130b7565b6127fe565b005b34801561033e57600080fd5b5061035960048036038101906103549190612fd7565b6128d6565b005b6002818154811061036b57600080fd5b906000526020600020906008020160009150905080600001549080600101805461039490613ec0565b80601f01602080910402602001604051908101604052809291908181526020018280546103c090613ec0565b801561040d5780601f106103e25761010080835404028352916020019161040d565b820191906000526020600020905b8154815290600101906020018083116103f057829003601f168201915b50505050509080600201805461042290613ec0565b80601f016020809104026020016040519081016040528092919081815260200182805461044e90613ec0565b801561049b5780601f106104705761010080835404028352916020019161049b565b820191906000526020600020905b81548152906001019060200180831161047e57829003601f168201915b5050505050908060030154908060040154908060050154908060060154908060070160009054906101000a900460ff16908060070160019054906101000a900460ff16905089565b81600060028111156104f8576104f7614043565b5b6002828154811061050c5761050b6140a1565b5b906000526020600020906008020160070160009054906101000a900460ff16600281111561053d5761053c614043565b5b1461057d576040517f08c379a00000000000000000000000000000000000000000000000000000000081526004016105749061393a565b60405180910390fd5b826006600082815260200190815260200160002060009054906101000a900473ffffffffffffffffffffffffffffffffffffffff1673ffffffffffffffffffffffffffffffffffffffff163373ffffffffffffffffffffffffffffffffffffffff161461061f576040517f08c379a000000000000000000000000000000000000000000000000000000000815260040161061690613a1a565b60405180910390fd5b60076000858152602001908152602001600020839080600181540180825580915050600190039060005260206000200160009091909190916101000a81548173ffffffffffffffffffffffffffffffffffffffff021916908373ffffffffffffffffffffffffffffffffffffffff1602179055507f94ef53e7db123adbcdfca5356f9d0503e88e4d11d66e74b2713f5b27d9c5a60e84600286815481106106c9576106c86140a1565b5b906000526020600020906008020160010133866040516106ec9493929190613b3b565b60405180910390a150505050565b806000600281111561070f5761070e614043565b5b60028281548110610723576107226140a1565b5b906000526020600020906008020160070160009054906101000a900460ff16600281111561075457610753614043565b5b14610794576040517f08c379a000000000000000000000000000000000000000000000000000000000815260040161078b9061393a565b60405180910390fd5b8160003373ffffffffffffffffffffffffffffffffffffffff166006600084815260200190815260200160002060009054906101000a900473ffffffffffffffffffffffffffffffffffffffff1673ffffffffffffffffffffffffffffffffffffffff1614156108075760019050610918565b60006003600084815260200190815260200160002080548060200260200160405190810160405280929190818152602001828054801561089c57602002820191906000526020600020905b8160009054906101000a900473ffffffffffffffffffffffffffffffffffffffff1673ffffffffffffffffffffffffffffffffffffffff1681526020019060010190808311610852575b5050505050905060005b8151811015610915573373ffffffffffffffffffffffffffffffffffffffff168282815181106108d9576108d86140a1565b5b602002602001015173ffffffffffffffffffffffffffffffffffffffff16141561090257600192505b808061090d90613f3d565b9150506108a6565b50505b80610958576040517f08c379a000000000000000000000000000000000000000000000000000000000815260040161094f9061385a565b60405180910390fd5b60006002858154811061096e5761096d6140a1565b5b90600052602060002090600802019050600061099961038483600501546129ce90919063ffffffff16565b905042826005015410156109e2576040517f08c379a00000000000000000000000000000000000000000000000000000000081526004016109d990613aba565b60405180910390fd5b804211610ade5760018260070160006101000a81548160ff02191690836002811115610a1157610a10614043565b5b021790555060018260070160016101000a81548160ff02191690836002811115610a3e57610a3d614043565b5b0217905550610a4d86336129e4565b7f95f3508e3d2601a1185dfa8d252fbe21a9bde55eb81f8ec7402feb5cd1320372826001018360020133428660050154604051610a8e959493929190613786565b60405180910390a17fa589e4682782979c3572a610297ccac31bfe875b0c2b13cc0f018725ac0d66f482600101836002013342604051610ad19493929190613733565b60405180910390a1610ae8565b610ae782612a5c565b5b505050505050565b610af8612b00565b73ffffffffffffffffffffffffffffffffffffffff16610b16611e23565b73ffffffffffffffffffffffffffffffffffffffff1614610b6c576040517f08c379a0000000000000000000000000000000000000000000000000000000008152600401610b639061397a565b60405180910390fd5b80600a8190555050565b80600060028281548110610b8d57610b8c6140a1565b5b906000526020600020906008020160070160009054906101000a900460ff16905060016002811115610bc257610bc1614043565b5b816002811115610bd557610bd4614043565b5b1480610c045750600280811115610bef57610bee614043565b5b816002811115610c0257610c01614043565b5b145b610c43576040517f08c379a0000000000000000000000000000000000000000000000000000000008152600401610c3a906138ba565b60405180910390fd5b82600073ffffffffffffffffffffffffffffffffffffffff166009600083815260200190815260200160002060009054906101000a900473ffffffffffffffffffffffffffffffffffffffff1673ffffffffffffffffffffffffffffffffffffffff1614610ce6576040517f08c379a0000000000000000000000000000000000000000000000000000000008152600401610cdd906139fa565b60405180910390fd5b8360008060056000848152602001908152602001600020805480602002602001604051908101604052809291908181526020018280548015610d7d57602002820191906000526020600020905b8160009054906101000a900473ffffffffffffffffffffffffffffffffffffffff1673ffffffffffffffffffffffffffffffffffffffff1681526020019060010190808311610d33575b5050505050905060005b8151811015610df6573373ffffffffffffffffffffffffffffffffffffffff16828281518110610dba57610db96140a1565b5b602002602001015173ffffffffffffffffffffffffffffffffffffffff161415610de357600192505b8080610dee90613f3d565b915050610d87565b5081610e37576040517f08c379a0000000000000000000000000000000000000000000000000000000008152600401610e2e9061383a565b60405180910390fd5b600060028881548110610e4d57610e4c6140a1565b5b906000526020600020906008020190506000610e7861038483600501546129ce90919063ffffffff16565b905080421115610ff65760016002811115610e9657610e95614043565b5b8260070160009054906101000a900460ff166002811115610eba57610eb9614043565b5b1415610eee5760028260070160006101000a81548160ff02191690836002811115610ee857610ee7614043565b5b02179055505b6000610f0f600560008c815260200190815260200160002080549050612b08565b90506000600560008c81526020019081526020016000208281548110610f3857610f376140a1565b5b9060005260206000200160009054906101000a900473ffffffffffffffffffffffffffffffffffffffff16905080600960008d815260200190815260200160002060006101000a81548173ffffffffffffffffffffffffffffffffffffffff021916908373ffffffffffffffffffffffffffffffffffffffff1602179055507f4a3ada27819f61e34b19b589999ab28345ca6a70d320e56a701eaffb52b2788c8460010182604051610feb929190613703565b60405180910390a150505b505050505050505050565b80600073ffffffffffffffffffffffffffffffffffffffff166009600083815260200190815260200160002060009054906101000a900473ffffffffffffffffffffffffffffffffffffffff1673ffffffffffffffffffffffffffffffffffffffff1614156110a5576040517f08c379a000000000000000000000000000000000000000000000000000000000815260040161109c9061391a565b60405180910390fd5b816000806005600084815260200190815260200160002080548060200260200160405190810160405280929190818152602001828054801561113c57602002820191906000526020600020905b8160009054906101000a900473ffffffffffffffffffffffffffffffffffffffff1673ffffffffffffffffffffffffffffffffffffffff16815260200190600101908083116110f2575b5050505050905060005b81518110156111b5573373ffffffffffffffffffffffffffffffffffffffff16828281518110611179576111786140a1565b5b602002602001015173ffffffffffffffffffffffffffffffffffffffff1614156111a257600192505b80806111ad90613f3d565b915050611146565b50816111f6576040517f08c379a00000000000000000000000000000000000000000000000000000000081526004016111ed9061383a565b60405180910390fd5b8460006001905060006008600084815260200190815260200160002080548060200260200160405190810160405280929190818152602001828054801561129257602002820191906000526020600020905b8160009054906101000a900473ffffffffffffffffffffffffffffffffffffffff1673ffffffffffffffffffffffffffffffffffffffff1681526020019060010190808311611248575b5050505050905060008151146113165760005b8151811015611314573373ffffffffffffffffffffffffffffffffffffffff168282815181106112d8576112d76140a1565b5b602002602001015173ffffffffffffffffffffffffffffffffffffffff16141561130157600092505b808061130c90613f3d565b9150506112a5565b505b81611356576040517f08c379a000000000000000000000000000000000000000000000000000000000815260040161134d9061383a565b60405180910390fd5b6000600960008a815260200190815260200160002060009054906101000a900473ffffffffffffffffffffffffffffffffffffffff169050600060028a815481106113a4576113a36140a1565b5b906000526020600020906008020160405180610120016040529081600082015481526020016001820180546113d890613ec0565b80601f016020809104026020016040519081016040528092919081815260200182805461140490613ec0565b80156114515780601f1061142657610100808354040283529160200191611451565b820191906000526020600020905b81548152906001019060200180831161143457829003601f168201915b5050505050815260200160028201805461146a90613ec0565b80601f016020809104026020016040519081016040528092919081815260200182805461149690613ec0565b80156114e35780601f106114b8576101008083540402835291602001916114e3565b820191906000526020600020905b8154815290600101906020018083116114c657829003601f168201915b50505050508152602001600382015481526020016004820154815260200160058201548152602001600682015481526020016007820160009054906101000a900460ff16600281111561153957611538614043565b5b600281111561154b5761154a614043565b5b81526020016007820160019054906101000a900460ff16600281111561157457611573614043565b5b600281111561158657611585614043565b5b81525050905060006115d16115be6115ab612710600c54612b6890919063ffffffff16565b8460c00151612b7e90919063ffffffff16565b8360c00151612b9490919063ffffffff16565b90506001600560008d8152602001908152602001600020805490501415611752578273ffffffffffffffffffffffffffffffffffffffff163373ffffffffffffffffffffffffffffffffffffffff1614611660576040517f08c379a0000000000000000000000000000000000000000000000000000000008152600401611657906139da565b60405180910390fd5b6000600460008d81526020019081526020016000205490506000600460008e815260200190815260200160002081905550600860008d8152602001908152602001600020849080600181540180825580915050600190039060005260206000200160009091909190916101000a81548173ffffffffffffffffffffffffffffffffffffffff021916908373ffffffffffffffffffffffffffffffffffffffff1602179055508373ffffffffffffffffffffffffffffffffffffffff166108fc829081150290604051600060405180830381858888f1935050505015801561174b573d6000803e3d6000fd5b50506118f4565b600360008c815260200190815260200160002080549050600560008d8152602001908152602001600020805490501415611837573373ffffffffffffffffffffffffffffffffffffffff168373ffffffffffffffffffffffffffffffffffffffff1614156117e25760006117d0600283612b7e90919063ffffffff16565b90506117dc8c82612baa565b50611832565b60006118196001600360008f81526020019081526020016000208054905061180a9190613d8e565b83612b6890919063ffffffff16565b826118249190613d8e565b90506118308c82612baa565b505b6118f3565b3373ffffffffffffffffffffffffffffffffffffffff168373ffffffffffffffffffffffffffffffffffffffff1614156118e15760006118ac600560008e815260200190815260200160002080549050600360008f815260200190815260200160002080549050612b9490919063ffffffff16565b905060006118c38284612b7e90919063ffffffff16565b836118ce9190613cad565b90506118da8d82612baa565b50506118f2565b60008190506118f08c82612baa565b505b5b5b5050505050505050505050565b806000600281111561191657611915614043565b5b6002828154811061192a576119296140a1565b5b906000526020600020906008020160070160009054906101000a900460ff16600281111561195b5761195a614043565b5b1461199b576040517f08c379a00000000000000000000000000000000000000000000000000000000081526004016119929061393a565b60405180910390fd5b8160008060076000848152602001908152602001600020805480602002602001604051908101604052809291908181526020018280548015611a3257602002820191906000526020600020905b8160009054906101000a900473ffffffffffffffffffffffffffffffffffffffff1673ffffffffffffffffffffffffffffffffffffffff16815260200190600101908083116119e8575b5050505050905060005b8151811015611aab573373ffffffffffffffffffffffffffffffffffffffff16828281518110611a6f57611a6e6140a1565b5b602002602001015173ffffffffffffffffffffffffffffffffffffffff161415611a9857600192505b8080611aa390613f3d565b915050611a3c565b5081611aec576040517f08c379a0000000000000000000000000000000000000000000000000000000008152600401611ae39061399a565b60405180910390fd5b60028581548110611b0057611aff6140a1565b5b9060005260206000209060080201600601543414611b53576040517f08c379a0000000000000000000000000000000000000000000000000000000008152600401611b4a90613a9a565b60405180910390fd5b611b5d8534612ca6565b611b678533612d49565b7f0c6a69959e047459e430b130691a13fba617e0ed6d8f29ff7e802d2051f39c6c8560028781548110611b9d57611b9c6140a1565b5b906000526020600020906008020160010133600360008a81526020019081526020016000206000604051611bd5959493929190613b87565b60405180910390a15050505050565b611bec612b00565b73ffffffffffffffffffffffffffffffffffffffff16611c0a611e23565b73ffffffffffffffffffffffffffffffffffffffff1614611c60576040517f08c379a0000000000000000000000000000000000000000000000000000000008152600401611c579061397a565b60405180910390fd5b6001543073ffffffffffffffffffffffffffffffffffffffff163111611cbb576040517f08c379a0000000000000000000000000000000000000000000000000000000008152600401611cb2906139ba565b60405180910390fd5b611cc3611e23565b73ffffffffffffffffffffffffffffffffffffffff166108fc6001549081150290604051600060405180830381858888f19350505050158015611d0a573d6000803e3d6000fd5b506000600181905550565b611d1d612b00565b73ffffffffffffffffffffffffffffffffffffffff16611d3b611e23565b73ffffffffffffffffffffffffffffffffffffffff1614611d91576040517f08c379a0000000000000000000000000000000000000000000000000000000008152600401611d889061397a565b60405180910390fd5b80600b8190555050565b611da3612b00565b73ffffffffffffffffffffffffffffffffffffffff16611dc1611e23565b73ffffffffffffffffffffffffffffffffffffffff1614611e17576040517f08c379a0000000000000000000000000000000000000000000000000000000008152600401611e0e9061397a565b60405180910390fd5b611e216000612dc1565b565b60008060009054906101000a900473ffffffffffffffffffffffffffffffffffffffff16905090565b6301dfe20042611e5c9190613cad565b8110611e9d576040517f08c379a0000000000000000000000000000000000000000000000000000000008152600401611e9490613a5a565b60405180910390fd5b61a8c042611eab9190613cad565b811015611eed576040517f08c379a0000000000000000000000000000000000000000000000000000000008152600401611ee4906138fa565b60405180910390fd5b600a54341015611f32576040517f08c379a0000000000000000000000000000000000000000000000000000000008152600401611f2990613a7a565b60405180910390fd5b600b54341115611f77576040517f08c379a0000000000000000000000000000000000000000000000000000000008152600401611f6e906138da565b60405180910390fd5b600060405180610120016040528087815260200186815260200185815260200184815260200142815260200183815260200134815260200160006002811115611fc357611fc2614043565b5b815260200160006002811115611fdc57611fdb614043565b5b81525090506002819080600181540180825580915050600190039060005260206000209060080201600090919091909150600082015181600001556020820151816001019080519060200190612033929190612e85565b506040820151816002019080519060200190612050929190612e85565b50606082015181600301556080820151816004015560a0820151816005015560c0820151816006015560e08201518160070160006101000a81548160ff021916908360028111156120a4576120a3614043565b5b02179055506101008201518160070160016101000a81548160ff021916908360028111156120d5576120d4614043565b5b0217905550505060006120f76001600280549050612b9490919063ffffffff16565b9050336006600083815260200190815260200160002060006101000a81548173ffffffffffffffffffffffffffffffffffffffff021916908373ffffffffffffffffffffffffffffffffffffffff1602179055506121558133612d49565b61215f8134612ca6565b7f04be756dec315957cd509516327ecd7d757020384f12439c43676bc9b9ef99958187878633604051612196959493929190613ada565b60405180910390a150505050505050565b81600060028111156121bc576121bb614043565b5b600282815481106121d0576121cf6140a1565b5b906000526020600020906008020160070160009054906101000a900460ff16600281111561220157612200614043565b5b14612241576040517f08c379a00000000000000000000000000000000000000000000000000000000081526004016122389061393a565b60405180910390fd5b82600080600760008481526020019081526020016000208054806020026020016040519081016040528092919081815260200182805480156122d857602002820191906000526020600020905b8160009054906101000a900473ffffffffffffffffffffffffffffffffffffffff1673ffffffffffffffffffffffffffffffffffffffff168152602001906001019080831161228e575b5050505050905060005b8151811015612351573373ffffffffffffffffffffffffffffffffffffffff16828281518110612315576123146140a1565b5b602002602001015173ffffffffffffffffffffffffffffffffffffffff16141561233e57600192505b808061234990613f3d565b9150506122e2565b5081612392576040517f08c379a00000000000000000000000000000000000000000000000000000000081526004016123899061399a565b60405180910390fd5b600286815481106123a6576123a56140a1565b5b90600052602060002090600802016000015485146123f9576040517f08c379a00000000000000000000000000000000000000000000000000000000081526004016123f09061387a565b60405180910390fd5b6002868154811061240d5761240c6140a1565b5b9060005260206000209060080201600601543414612460576040517f08c379a000000000000000000000000000000000000000000000000000000000815260040161245790613a9a565b60405180910390fd5b61246a8634612ca6565b6124748633612d49565b7f0c6a69959e047459e430b130691a13fba617e0ed6d8f29ff7e802d2051f39c6c86600288815481106124aa576124a96140a1565b5b906000526020600020906008020160010133600360008b815260200190815260200160002060016040516124e2959493929190613b87565b60405180910390a1505050505050565b806001600281111561250757612506614043565b5b6002828154811061251b5761251a6140a1565b5b906000526020600020906008020160070160009054906101000a900460ff16600281111561254c5761254b614043565b5b1461258c576040517f08c379a00000000000000000000000000000000000000000000000000000000081526004016125839061395a565b60405180910390fd5b8160003373ffffffffffffffffffffffffffffffffffffffff166006600084815260200190815260200160002060009054906101000a900473ffffffffffffffffffffffffffffffffffffffff1673ffffffffffffffffffffffffffffffffffffffff1614156125ff5760019050612710565b60006003600084815260200190815260200160002080548060200260200160405190810160405280929190818152602001828054801561269457602002820191906000526020600020905b8160009054906101000a900473ffffffffffffffffffffffffffffffffffffffff1673ffffffffffffffffffffffffffffffffffffffff168152602001906001019080831161264a575b5050505050905060005b815181101561270d573373ffffffffffffffffffffffffffffffffffffffff168282815181106126d1576126d06140a1565b5b602002602001015173ffffffffffffffffffffffffffffffffffffffff1614156126fa57600192505b808061270590613f3d565b91505061269e565b50505b80612750576040517f08c379a00000000000000000000000000000000000000000000000000000000081526004016127479061385a565b60405180910390fd5b600060028581548110612766576127656140a1565b5b90600052602060002090600802019050600061279161038483600501546129ce90919063ffffffff16565b90508042116127ec576127a486336129e4565b7fa589e4682782979c3572a610297ccac31bfe875b0c2b13cc0f018725ac0d66f4826001018360020133426040516127df9493929190613733565b60405180910390a16127f6565b6127f582612a5c565b5b505050505050565b612806612b00565b73ffffffffffffffffffffffffffffffffffffffff16612824611e23565b73ffffffffffffffffffffffffffffffffffffffff161461287a576040517f08c379a00000000000000000000000000000000000000000000000000000000081526004016128719061397a565b60405180910390fd5b6000811015801561288d57506127108111155b6128cc576040517f08c379a00000000000000000000000000000000000000000000000000000000081526004016128c390613a3a565b60405180910390fd5b80600c8190555050565b6128de612b00565b73ffffffffffffffffffffffffffffffffffffffff166128fc611e23565b73ffffffffffffffffffffffffffffffffffffffff1614612952576040517f08c379a00000000000000000000000000000000000000000000000000000000081526004016129499061397a565b60405180910390fd5b600073ffffffffffffffffffffffffffffffffffffffff168173ffffffffffffffffffffffffffffffffffffffff1614156129c2576040517f08c379a00000000000000000000000000000000000000000000000000000000081526004016129b99061389a565b60405180910390fd5b6129cb81612dc1565b50565b600081836129dc9190613cad565b905092915050565b60056000838152602001908152602001600020819080600181540180825580915050600190039060005260206000200160009091909190916101000a81548173ffffffffffffffffffffffffffffffffffffffff021916908373ffffffffffffffffffffffffffffffffffffffff1602179055505050565b60028160070160006101000a81548160ff02191690836002811115612a8457612a83614043565b5b021790555060028160070160016101000a81548160ff02191690836002811115612ab157612ab0614043565b5b02179055507f8b187a9012477fc8a7d5e6277af1ecd606198cf48245c65c4d5120441ee9cc198160010182600201836005015442604051612af594939291906137e7565b60405180910390a150565b600033905090565b6000612b206001600d546129ce90919063ffffffff16565b600d81905550814233600d54604051602001612b3e93929190613610565b6040516020818303038152906040528051906020012060001c612b619190613fb4565b9050919050565b60008183612b769190613d03565b905092915050565b60008183612b8c9190613d34565b905092915050565b60008183612ba29190613d8e565b905092915050565b612bd0816004600085815260200190815260200160002054612b9490919063ffffffff16565b600460008481526020019081526020016000208190555060086000838152602001908152602001600020339080600181540180825580915050600190039060005260206000200160009091909190916101000a81548173ffffffffffffffffffffffffffffffffffffffff021916908373ffffffffffffffffffffffffffffffffffffffff1602179055503373ffffffffffffffffffffffffffffffffffffffff166108fc829081150290604051600060405180830381858888f19350505050158015612ca1573d6000803e3d6000fd5b505050565b6000612cbf612710600c54612b6890919063ffffffff16565b90506000612cd68284612b7e90919063ffffffff16565b90506000612ced8285612b9490919063ffffffff16565b9050612d04826001546129ce90919063ffffffff16565b50612d2b8160046000888152602001908152602001600020546129ce90919063ffffffff16565b60046000878152602001908152602001600020819055505050505050565b60036000838152602001908152602001600020819080600181540180825580915050600190039060005260206000200160009091909190916101000a81548173ffffffffffffffffffffffffffffffffffffffff021916908373ffffffffffffffffffffffffffffffffffffffff1602179055505050565b60008060009054906101000a900473ffffffffffffffffffffffffffffffffffffffff169050816000806101000a81548173ffffffffffffffffffffffffffffffffffffffff021916908373ffffffffffffffffffffffffffffffffffffffff1602179055508173ffffffffffffffffffffffffffffffffffffffff168173ffffffffffffffffffffffffffffffffffffffff167f8be0079c531659141344cd1fd0a4f28419497f9722a3daafe3b4186f6b6457e060405160405180910390a35050565b828054612e9190613ec0565b90600052602060002090601f016020900481019282612eb35760008555612efa565b82601f10612ecc57805160ff1916838001178555612efa565b82800160010185558215612efa579182015b82811115612ef9578251825591602001919060010190612ede565b5b509050612f079190612f0b565b5090565b5b80821115612f24576000816000905550600101612f0c565b5090565b6000612f3b612f3684613c0d565b613be8565b905082815260208101848484011115612f5757612f56614117565b5b612f62848285613e7e565b509392505050565b600081359050612f7981614782565b92915050565b600081359050612f8e81614799565b92915050565b600082601f830112612fa957612fa8614112565b5b8135612fb9848260208601612f28565b91505092915050565b600081359050612fd1816147b0565b92915050565b600060208284031215612fed57612fec614121565b5b6000612ffb84828501612f6a565b91505092915050565b600080600080600060a086880312156130205761301f614121565b5b600061302e88828901612f7f565b955050602086013567ffffffffffffffff81111561304f5761304e61411c565b5b61305b88828901612f94565b945050604086013567ffffffffffffffff81111561307c5761307b61411c565b5b61308888828901612f94565b935050606061309988828901612fc2565b92505060806130aa88828901612fc2565b9150509295509295909350565b6000602082840312156130cd576130cc614121565b5b60006130db84828501612fc2565b91505092915050565b600080604083850312156130fb576130fa614121565b5b600061310985828601612fc2565b925050602061311a85828601612f6a565b9150509250929050565b6000806040838503121561313b5761313a614121565b5b600061314985828601612fc2565b925050602061315a85828601612f7f565b9150509250929050565b6000613170838361317c565b60208301905092915050565b61318581613de2565b82525050565b61319481613de2565b82525050565b6131ab6131a682613de2565b613f86565b82525050565b60006131bc82613c68565b6131c68185613c8b565b93506131d183613c3e565b8060005b83811015613209576131e6826140ff565b6131f08882613164565b97506131fb83613c7e565b9250506001810190506131d5565b5085935050505092915050565b61321f81613df4565b82525050565b61322e81613e00565b82525050565b61323d81613e5a565b82525050565b61324c81613e6c565b82525050565b600061325d82613c73565b6132678185613c9c565b9350613277818560208601613e8d565b61328081614126565b840191505092915050565b6000815461329881613ec0565b6132a28186613c9c565b945060018216600081146132bd57600181146132cf57613302565b60ff1983168652602086019350613302565b6132d885613c53565b60005b838110156132fa578154818901526001820191506020810190506132db565b808801955050505b50505092915050565b6000613318604b83613c9c565b915061332382614151565b606082019050919050565b600061333b603683613c9c565b9150613346826141c6565b604082019050919050565b600061335e601483613c9c565b915061336982614215565b602082019050919050565b6000613381602683613c9c565b915061338c8261423e565b604082019050919050565b60006133a4602e83613c9c565b91506133af8261428d565b604082019050919050565b60006133c7603383613c9c565b91506133d2826142dc565b604082019050919050565b60006133ea603d83613c9c565b91506133f58261432b565b604082019050919050565b600061340d602683613c9c565b91506134188261437a565b604082019050919050565b6000613430602283613c9c565b915061343b826143c9565b604082019050919050565b6000613453601b83613c9c565b915061345e82614418565b602082019050919050565b6000613476602083613c9c565b915061348182614441565b602082019050919050565b6000613499603583613c9c565b91506134a48261446a565b604082019050919050565b60006134bc601e83613c9c565b91506134c7826144b9565b602082019050919050565b60006134df604583613c9c565b91506134ea826144e2565b606082019050919050565b6000613502601b83613c9c565b915061350d82614557565b602082019050919050565b6000613525603383613c9c565b915061353082614580565b604082019050919050565b6000613548602183613c9c565b9150613553826145cf565b604082019050919050565b600061356b603b83613c9c565b91506135768261461e565b604082019050919050565b600061358e603683613c9c565b91506135998261466d565b604082019050919050565b60006135b1603f83613c9c565b91506135bc826146bc565b604082019050919050565b60006135d4603783613c9c565b91506135df8261470b565b604082019050919050565b6135f381613e50565b82525050565b61360a61360582613e50565b613faa565b82525050565b600061361c82866135f9565b60208201915061362c828561319a565b60148201915061363c82846135f9565b602082019150819050949350505050565b6000602082019050613662600083018461318b565b92915050565b60006101208201905061367e600083018c613225565b8181036020830152613690818b613252565b905081810360408301526136a4818a613252565b90506136b360608301896135ea565b6136c060808301886135ea565b6136cd60a08301876135ea565b6136da60c08301866135ea565b6136e760e0830185613243565b6136f5610100830184613234565b9a9950505050505050505050565b6000604082019050818103600083015261371d818561328b565b905061372c602083018461318b565b9392505050565b6000608082019050818103600083015261374d818761328b565b90508181036020830152613761818661328b565b9050613770604083018561318b565b61377d60608301846135ea565b95945050505050565b600060a08201905081810360008301526137a0818861328b565b905081810360208301526137b4818761328b565b90506137c3604083018661318b565b6137d060608301856135ea565b6137dd60808301846135ea565b9695505050505050565b60006080820190508181036000830152613801818761328b565b90508181036020830152613815818661328b565b905061382460408301856135ea565b61383160608301846135ea565b95945050505050565b600060208201905081810360008301526138538161330b565b9050919050565b600060208201905081810360008301526138738161332e565b9050919050565b6000602082019050818103600083015261389381613351565b9050919050565b600060208201905081810360008301526138b381613374565b9050919050565b600060208201905081810360008301526138d381613397565b9050919050565b600060208201905081810360008301526138f3816133ba565b9050919050565b60006020820190508181036000830152613913816133dd565b9050919050565b6000602082019050818103600083015261393381613400565b9050919050565b6000602082019050818103600083015261395381613423565b9050919050565b6000602082019050818103600083015261397381613446565b9050919050565b6000602082019050818103600083015261399381613469565b9050919050565b600060208201905081810360008301526139b38161348c565b9050919050565b600060208201905081810360008301526139d3816134af565b9050919050565b600060208201905081810360008301526139f3816134d2565b9050919050565b60006020820190508181036000830152613a13816134f5565b9050919050565b60006020820190508181036000830152613a3381613518565b9050919050565b60006020820190508181036000830152613a538161353b565b9050919050565b60006020820190508181036000830152613a738161355e565b9050919050565b60006020820190508181036000830152613a9381613581565b9050919050565b60006020820190508181036000830152613ab3816135a4565b9050919050565b60006020820190508181036000830152613ad3816135c7565b9050919050565b600060a082019050613aef60008301886135ea565b8181036020830152613b018187613252565b90508181036040830152613b158186613252565b9050613b2460608301856135ea565b613b31608083018461318b565b9695505050505050565b6000608082019050613b5060008301876135ea565b8181036020830152613b62818661328b565b9050613b71604083018561318b565b613b7e606083018461318b565b95945050505050565b600060a082019050613b9c60008301886135ea565b8181036020830152613bae818761328b565b9050613bbd604083018661318b565b8181036060830152613bcf81856131b1565b9050613bde6080830184613216565b9695505050505050565b6000613bf2613c03565b9050613bfe8282613f0c565b919050565b6000604051905090565b600067ffffffffffffffff821115613c2857613c276140d0565b5b613c3182614126565b9050602081019050919050565b60008190508160005260206000209050919050565b60008190508160005260206000209050919050565b600081549050919050565b600081519050919050565b6000600182019050919050565b600082825260208201905092915050565b600082825260208201905092915050565b6000613cb882613e50565b9150613cc383613e50565b9250827fffffffffffffffffffffffffffffffffffffffffffffffffffffffffffffffff03821115613cf857613cf7613fe5565b5b828201905092915050565b6000613d0e82613e50565b9150613d1983613e50565b925082613d2957613d28614014565b5b828204905092915050565b6000613d3f82613e50565b9150613d4a83613e50565b9250817fffffffffffffffffffffffffffffffffffffffffffffffffffffffffffffffff0483118215151615613d8357613d82613fe5565b5b828202905092915050565b6000613d9982613e50565b9150613da483613e50565b925082821015613db757613db6613fe5565b5b828203905092915050565b600073ffffffffffffffffffffffffffffffffffffffff82169050919050565b6000613ded82613e30565b9050919050565b60008115159050919050565b6000819050919050565b6000819050613e188261475a565b919050565b6000819050613e2b8261476e565b919050565b600073ffffffffffffffffffffffffffffffffffffffff82169050919050565b6000819050919050565b6000613e6582613e0a565b9050919050565b6000613e7782613e1d565b9050919050565b82818337600083830152505050565b60005b83811015613eab578082015181840152602081019050613e90565b83811115613eba576000848401525b50505050565b60006002820490506001821680613ed857607f821691505b60208210811415613eec57613eeb614072565b5b50919050565b6000613f05613f0083614144565b613dc2565b9050919050565b613f1582614126565b810181811067ffffffffffffffff82111715613f3457613f336140d0565b5b80604052505050565b6000613f4882613e50565b91507fffffffffffffffffffffffffffffffffffffffffffffffffffffffffffffffff821415613f7b57613f7a613fe5565b5b600182019050919050565b6000613f9182613f98565b9050919050565b6000613fa382614137565b9050919050565b6000819050919050565b6000613fbf82613e50565b9150613fca83613e50565b925082613fda57613fd9614014565b5b828206905092915050565b7f4e487b7100000000000000000000000000000000000000000000000000000000600052601160045260246000fd5b7f4e487b7100000000000000000000000000000000000000000000000000000000600052601260045260246000fd5b7f4e487b7100000000000000000000000000000000000000000000000000000000600052602160045260246000fd5b7f4e487b7100000000000000000000000000000000000000000000000000000000600052602260045260246000fd5b7f4e487b7100000000000000000000000000000000000000000000000000000000600052603260045260246000fd5b7f4e487b7100000000000000000000000000000000000000000000000000000000600052604160045260246000fd5b600061410b8254613ef2565b9050919050565b600080fd5b600080fd5b600080fd5b600080fd5b6000601f19601f8301169050919050565b60008160601b9050919050565b60008160001c9050919050565b7f4f6e6c79206120757365722077686f2070756e637475616c6c7920636865636b60008201527f65642d696e20746f2074686973206576656e742063616e2063616c6c2074686960208201527f732066756e6374696f6e2e000000000000000000000000000000000000000000604082015250565b7f4f6e6c7920616e20617474656e646565206f662074686973206576656e74206360008201527f616e2063616c6c20746869732066756e6374696f6e2e00000000000000000000602082015250565b7f496e636f7272656374206a6f696e20636f64652e000000000000000000000000600082015250565b7f4f776e61626c653a206e6577206f776e657220697320746865207a65726f206160008201527f6464726573730000000000000000000000000000000000000000000000000000602082015250565b7f4974206973206e6f7420746865206576656e74206f7220636f6d706c6574656460008201527f206576656e7420706572696f642e000000000000000000000000000000000000602082015250565b7f457363726f7720616d6f756e7420746f6f206c617267652e20506c656173652060008201527f6465637265617365206974732076616c75652e00000000000000000000000000602082015250565b7f44617465206f66206576656e74206d7573742062652061746c6561737420313260008201527f20686f7572732066726f6d207468652070726573656e742074696d652e000000602082015250565b7f4576656e7420646f6573206e6f74206861766520612070696e742077696e6e6560008201527f72207965742e0000000000000000000000000000000000000000000000000000602082015250565b7f4974206973206e6f7420746865206576656e7420696e7669746520706572696f60008201527f642e000000000000000000000000000000000000000000000000000000000000602082015250565b7f4974206973206e6f7420746865206576656e7420706572696f642e0000000000600082015250565b7f4f776e61626c653a2063616c6c6572206973206e6f7420746865206f776e6572600082015250565b7f4f6e6c7920616e20696e7669746565206f662074686973206576656e7420636160008201527f6e2063616c6c20746869732066756e6374696f6e2e0000000000000000000000602082015250565b7f436f6e74726163742062616c616e636520696e73756666696369656e742e0000600082015250565b7f596f752073686f756c642062652074686520757365722077686f20776f6e207460008201527f68652070696e7420696620796f75277665206d6164652069742074686973206660208201527f61722e2e2e000000000000000000000000000000000000000000000000000000604082015250565b7f4576656e7420616c72656164792068617320612077696e6e65722e0000000000600082015250565b7f4f6e6c792074686520686f7374206f662074686973206576656e742063616e2060008201527f63616c6c20746869732066756e6374696f6e2e00000000000000000000000000602082015250565b7f496e76616c6964206f7065726174696e67206665652070657263656e7461676560008201527f2e00000000000000000000000000000000000000000000000000000000000000602082015250565b7f44617465206f66206576656e74206d757374206e6f742065786365656420312060008201527f796561722066726f6d207468652070726573656e742074696d652e0000000000602082015250565b7f457363726f7720616d6f756e7420696e73756666696369656e742e20506c656160008201527f736520696e637265617365206974732076616c75652e00000000000000000000602082015250565b7f496e636f727265637420657363726f7720616d6f756e742e20506c656173652060008201527f7573652074686520657861637420616d6f756e74207370656369666965642e00602082015250565b7f4576656e7420686173206e6f742079657420737461727465642e20547279206360008201527f6865636b696e6720696e20616761696e206c617465722e000000000000000000602082015250565b6003811061476b5761476a614043565b5b50565b6003811061477f5761477e614043565b5b50565b61478b81613de2565b811461479657600080fd5b50565b6147a281613e00565b81146147ad57600080fd5b50565b6147b981613e50565b81146147c457600080fd5b5056fea264697066735822122003fa8162721e3248fb2aa47cb811f0e0b5dde734f69cc25e4f41264b667f11c864736f6c63430008060033",
  "immutableReferences": {},
  "source": "pragma solidity ^0.8.0;\n\nimport \"./EventCheckIn.sol\";\nimport \"@openzeppelin/contracts/utils/math/SafeMath.sol\";\n\n\ncontract EventFinish is EventCheckIn  {\n    using SafeMath for uint256;\n    using SafeMath for uint32;\n    using SafeMath for uint16;\n\n    // EVENTS\n    event PintWinner(\n        string eventName,\n        address userAddress\n    );\n\n    // VARS\n    uint randNonce = 0;\n\n    // MODIFIERS\n    modifier eventPeriodOrComplete(uint _eventId) {\n        State eventState = events[_eventId].state;\n        require(eventState == State.EVENT_PERIOD || eventState == State.EVENT_COMPLETE, 'It is not the event or completed event period.');\n        _;\n    }\n\n    modifier hasWinner(uint _eventId) {\n        require(eventToWinner[_eventId] != address(0), \"Event does not have a pint winner yet.\");\n        _;\n    }\n\n    modifier noWinner(uint _eventId) {\n        require(eventToWinner[_eventId] == address(0), \"Event already has a winner.\");\n        _;\n    }\n\n    modifier onlyCheckedIn(uint _eventId) {\n        // The below may error out. Trying to shallow copy arr.\n\n        bool isCheckedIn = false;\n        address[] memory checkedInUsers = eventToCheckedIn[_eventId];\n\n        for (uint i = 0; i < checkedInUsers.length; i++) {\n            if (checkedInUsers[i] == msg.sender) {\n                isCheckedIn = true;\n            }\n        }\n\n        require(isCheckedIn, \"Only a user who punctually checked-in to this event can call this function.\");\n        _;\n    }\n\n    // Prevents a user from calling the payout function multiple times\n    modifier onlyUnpaid(uint _eventId) {\n        bool hasNotBeenPaid = true;\n        address[] memory paidUsers = eventToPaidOut[_eventId];\n\n        if (paidUsers.length != 0) {\n            for (uint i = 0; i < paidUsers.length; i++) {\n                if (paidUsers[i] == msg.sender) {\n                    hasNotBeenPaid = false;\n                }\n            }\n        }\n\n        require(hasNotBeenPaid, \"Only a user who punctually checked-in to this event can call this function.\");\n        _;\n    }\n\n    // CONSTRUCTOR\n    // RECEIVE (IF EXISTS)\n    // FALLBACK (IF EXISTS)\n    // EXTERNAL\n\n    // PUBLIC\n    function decideWinner(uint _eventId) public eventPeriodOrComplete(_eventId) noWinner(_eventId) onlyCheckedIn(_eventId) {\n        Event storage ourEpicEvent = events[_eventId];\n        uint upperCheckinTime = ourEpicEvent.date.add(15 minutes);\n\n        // Possible to NOT have transitioned to COMPLETE just yet, so check time.\n        if (block.timestamp > upperCheckinTime) {\n            if (ourEpicEvent.state == State.EVENT_PERIOD) {\n                ourEpicEvent.state = State.EVENT_COMPLETE;\n            }\n\n            // rand should be a pseudo random number the length of the chekedIn array - 1 (last index).\n            uint256 rand = _getRandomNum(eventToCheckedIn[_eventId].length);\n            address winner = eventToCheckedIn[_eventId][rand];\n            eventToWinner[_eventId] = winner;\n            emit PintWinner(ourEpicEvent.name, winner);\n        }\n\n    }\n\n    // Called by those who actually attended the event.\n    // 1.) Event has a winner. This means decideWinner has been called and event is in COMPLETE.\n    // 2.) Caller has checked-in.\n    // 3.) User has not been paid yet\n    function withdrawEventFee(uint _eventId) public hasWinner(_eventId) onlyCheckedIn(_eventId) onlyUnpaid(_eventId) {\n        address winnerAddress = eventToWinner[_eventId];\n        Event memory epicEvent = events[_eventId];\n\n        uint256 amtUserPaidPostFees = epicEvent.fee.sub(epicEvent.fee.mul(operatingFeePercentage.div(10000)));\n\n        if (eventToCheckedIn[_eventId].length == 1) {\n            // Since there is a winner, only one person checked in, tranfer them the whole balance.\n            // Require statement is just a safeguard.\n            require(msg.sender == winnerAddress, \"You should be the user who won the pint if you've made it this far...\");\n\n            uint256 totalEventBal = eventToBalance[_eventId];\n            eventToBalance[_eventId] = 0;\n            eventToPaidOut[_eventId].push(winnerAddress);\n\n            payable(winnerAddress).transfer(totalEventBal);\n        } else if (eventToCheckedIn[_eventId].length == eventToAttendees[_eventId].length) {\n            // Know checkedIn is not 0 (hasWinner) or 1 (above conditional). Check if everyone checked in to attend the event.\n            if (winnerAddress == msg.sender) {\n                uint256 userWinnings = amtUserPaidPostFees.mul(2);\n                _payOutUser(_eventId, userWinnings);\n            } else {\n                // If they're not winner, need to count for the fact that user wins a free pint from everyone else (-1).\n                uint256 userWinnings = amtUserPaidPostFees - (amtUserPaidPostFees.div((eventToAttendees[_eventId].length - 1)));\n                _payOutUser(_eventId, userWinnings);\n            }\n        } else {\n            // Know it's not 0, 1, or the same number, so attendees > checked in. Those who did not check-in, lose deposit.\n            // Those who checked-in, but did not win get their deposit back.\n            // User who won gets the deposits of those who did not show up.\n            if (winnerAddress == msg.sender) {\n                // Get all the attendees who did not checkIn + initial deposit\n                uint256 noShowAmt = (eventToAttendees[_eventId].length.sub(eventToCheckedIn[_eventId].length));\n                uint256 userWinnings = amtUserPaidPostFees + amtUserPaidPostFees.mul(noShowAmt);\n                _payOutUser(_eventId, userWinnings);\n            } else {\n                // Get just initial deposit if attended\n                uint256 userWinnings = amtUserPaidPostFees;\n                _payOutUser(_eventId, userWinnings);\n            }\n        }\n    }\n\n    // INTERNAL\n    // PRIVATE\n    function _getRandomNum(uint _numberOfUsers) private returns(uint) {\n        randNonce = randNonce.add(1);\n        return uint(keccak256(abi.encodePacked(block.timestamp, msg.sender, randNonce))) % _numberOfUsers;\n    }\n\n    function _payOutUser(uint _eventId, uint _userWinnings) private {\n        eventToBalance[_eventId] = eventToBalance[_eventId].sub(_userWinnings);\n        eventToPaidOut[_eventId].push(msg.sender);\n        payable(msg.sender).transfer(_userWinnings);\n    }\n}",
  "sourcePath": "/Users/griff/Desktop/pintnight/src/contracts/EventFinish.sol",
  "compiler": {
    "name": "solc",
    "version": "0.8.6+commit.11564f7e.Emscripten.clang"
  },
  "schemaVersion": "3.4.1",
  "updatedAt": "2021-08-03T06:27:38.849Z",
  "devdoc": {
    "kind": "dev",
    "methods": {
      "owner()": {
        "details": "Returns the address of the current owner."
      },
      "renounceOwnership()": {
        "details": "Leaves the contract without owner. It will not be possible to call `onlyOwner` functions anymore. Can only be called by the current owner. NOTE: Renouncing ownership will leave the contract without an owner, thereby removing any functionality that is only available to the owner."
      },
      "transferOwnership(address)": {
        "details": "Transfers ownership of the contract to a new account (`newOwner`). Can only be called by the current owner."
      }
    },
    "version": 1
  },
  "userdoc": {
    "kind": "user",
    "methods": {},
    "version": 1
  }
}