{
  "contractName": "PintNight",
  "abi": [
    {
      "anonymous": false,
      "inputs": [
        {
          "indexed": true,
          "internalType": "address",
          "name": "previousOwner",
          "type": "address"
        },
        {
          "indexed": true,
          "internalType": "address",
          "name": "newOwner",
          "type": "address"
        }
      ],
      "name": "OwnershipTransferred",
      "type": "event"
    },
    {
      "inputs": [
        {
          "internalType": "uint256",
          "name": "",
          "type": "uint256"
        }
      ],
      "name": "events",
      "outputs": [
        {
          "internalType": "bytes32",
          "name": "code",
          "type": "bytes32"
        },
        {
          "internalType": "string",
          "name": "name",
          "type": "string"
        },
        {
          "internalType": "string",
          "name": "location",
          "type": "string"
        },
        {
          "internalType": "uint256",
          "name": "coordinates",
          "type": "uint256"
        },
        {
          "internalType": "uint256",
          "name": "created",
          "type": "uint256"
        },
        {
          "internalType": "uint256",
          "name": "date",
          "type": "uint256"
        },
        {
          "internalType": "uint256",
          "name": "fee",
          "type": "uint256"
        },
        {
          "internalType": "enum PintNight.State",
          "name": "state",
          "type": "uint8"
        },
        {
          "internalType": "enum PintNight.Result",
          "name": "result",
          "type": "uint8"
        }
      ],
      "stateMutability": "view",
      "type": "function"
    },
    {
      "inputs": [],
      "name": "owner",
      "outputs": [
        {
          "internalType": "address",
          "name": "",
          "type": "address"
        }
      ],
      "stateMutability": "view",
      "type": "function"
    },
    {
      "inputs": [],
      "name": "renounceOwnership",
      "outputs": [],
      "stateMutability": "nonpayable",
      "type": "function"
    },
    {
      "inputs": [
        {
          "internalType": "address",
          "name": "newOwner",
          "type": "address"
        }
      ],
      "name": "transferOwnership",
      "outputs": [],
      "stateMutability": "nonpayable",
      "type": "function"
    }
  ],
  "bytecode": "0x608060405234801561001057600080fd5b5061002d61002261003260201b60201c565b61003a60201b60201c565b6100fe565b600033905090565b60008060009054906101000a900473ffffffffffffffffffffffffffffffffffffffff169050816000806101000a81548173ffffffffffffffffffffffffffffffffffffffff021916908373ffffffffffffffffffffffffffffffffffffffff1602179055508173ffffffffffffffffffffffffffffffffffffffff168173ffffffffffffffffffffffffffffffffffffffff167f8be0079c531659141344cd1fd0a4f28419497f9722a3daafe3b4186f6b6457e060405160405180910390a35050565b6109978061010d6000396000f3fe608060405234801561001057600080fd5b506004361061004c5760003560e01c80630b79143014610051578063715018a6146100895780638da5cb5b14610093578063f2fde38b146100b1575b600080fd5b61006b60048036038101906100669190610521565b6100cd565b60405161008099989796959493929190610633565b60405180910390f35b610091610255565b005b61009b6102dd565b6040516100a89190610618565b60405180910390f35b6100cb60048036038101906100c691906104f4565b610306565b005b600281815481106100dd57600080fd5b9060005260206000209060080201600091509050806000015490806001018054610106906107ed565b80601f0160208091040260200160405190810160405280929190818152602001828054610132906107ed565b801561017f5780601f106101545761010080835404028352916020019161017f565b820191906000526020600020905b81548152906001019060200180831161016257829003601f168201915b505050505090806002018054610194906107ed565b80601f01602080910402602001604051908101604052809291908181526020018280546101c0906107ed565b801561020d5780601f106101e25761010080835404028352916020019161020d565b820191906000526020600020905b8154815290600101906020018083116101f057829003601f168201915b5050505050908060030154908060040154908060050154908060060154908060070160009054906101000a900460ff16908060070160019054906101000a900460ff16905089565b61025d6103fe565b73ffffffffffffffffffffffffffffffffffffffff1661027b6102dd565b73ffffffffffffffffffffffffffffffffffffffff16146102d1576040517f08c379a00000000000000000000000000000000000000000000000000000000081526004016102c8906106ee565b60405180910390fd5b6102db6000610406565b565b60008060009054906101000a900473ffffffffffffffffffffffffffffffffffffffff16905090565b61030e6103fe565b73ffffffffffffffffffffffffffffffffffffffff1661032c6102dd565b73ffffffffffffffffffffffffffffffffffffffff1614610382576040517f08c379a0000000000000000000000000000000000000000000000000000000008152600401610379906106ee565b60405180910390fd5b600073ffffffffffffffffffffffffffffffffffffffff168173ffffffffffffffffffffffffffffffffffffffff1614156103f2576040517f08c379a00000000000000000000000000000000000000000000000000000000081526004016103e9906106ce565b60405180910390fd5b6103fb81610406565b50565b600033905090565b60008060009054906101000a900473ffffffffffffffffffffffffffffffffffffffff169050816000806101000a81548173ffffffffffffffffffffffffffffffffffffffff021916908373ffffffffffffffffffffffffffffffffffffffff1602179055508173ffffffffffffffffffffffffffffffffffffffff168173ffffffffffffffffffffffffffffffffffffffff167f8be0079c531659141344cd1fd0a4f28419497f9722a3daafe3b4186f6b6457e060405160405180910390a35050565b6000813590506104d981610933565b92915050565b6000813590506104ee8161094a565b92915050565b60006020828403121561050a5761050961087d565b5b6000610518848285016104ca565b91505092915050565b6000602082840312156105375761053661087d565b5b6000610545848285016104df565b91505092915050565b6105578161072a565b82525050565b6105668161073c565b82525050565b61057581610796565b82525050565b610584816107a8565b82525050565b60006105958261070e565b61059f8185610719565b93506105af8185602086016107ba565b6105b881610882565b840191505092915050565b60006105d0602683610719565b91506105db82610893565b604082019050919050565b60006105f3602083610719565b91506105fe826108e2565b602082019050919050565b6106128161078c565b82525050565b600060208201905061062d600083018461054e565b92915050565b600061012082019050610649600083018c61055d565b818103602083015261065b818b61058a565b9050818103604083015261066f818a61058a565b905061067e6060830189610609565b61068b6080830188610609565b61069860a0830187610609565b6106a560c0830186610609565b6106b260e083018561057b565b6106c061010083018461056c565b9a9950505050505050505050565b600060208201905081810360008301526106e7816105c3565b9050919050565b60006020820190508181036000830152610707816105e6565b9050919050565b600081519050919050565b600082825260208201905092915050565b60006107358261076c565b9050919050565b6000819050919050565b60008190506107548261090b565b919050565b60008190506107678261091f565b919050565b600073ffffffffffffffffffffffffffffffffffffffff82169050919050565b6000819050919050565b60006107a182610746565b9050919050565b60006107b382610759565b9050919050565b60005b838110156107d85780820151818401526020810190506107bd565b838111156107e7576000848401525b50505050565b6000600282049050600182168061080557607f821691505b602082108114156108195761081861084e565b5b50919050565b7f4e487b7100000000000000000000000000000000000000000000000000000000600052602160045260246000fd5b7f4e487b7100000000000000000000000000000000000000000000000000000000600052602260045260246000fd5b600080fd5b6000601f19601f8301169050919050565b7f4f776e61626c653a206e6577206f776e657220697320746865207a65726f206160008201527f6464726573730000000000000000000000000000000000000000000000000000602082015250565b7f4f776e61626c653a2063616c6c6572206973206e6f7420746865206f776e6572600082015250565b6003811061091c5761091b61081f565b5b50565b600381106109305761092f61081f565b5b50565b61093c8161072a565b811461094757600080fd5b50565b6109538161078c565b811461095e57600080fd5b5056fea2646970667358221220ad9d48023c97645d883c8c61208fbb720097dc0b05bd13a7c4fb58bffd2f890264736f6c63430008060033",
  "immutableReferences": {},
  "source": "pragma solidity ^0.8.0;\n\nimport \"@openzeppelin/contracts/access/Ownable.sol\";\nimport \"@openzeppelin/contracts/utils/math/SafeMath.sol\";\n\ncontract PintNight is Ownable {\n    // to do: remove whatever you aren't using here\n    using SafeMath for uint256;\n    using SafeMath for uint32;\n    using SafeMath for uint16;\n    using SafeMath for uint8;\n\n    // Event state\n    enum State { BEFORE_EVENT, EVENT_PERIOD, EVENT_COMPLETE }\n\n    // Result of event\n    // Waiting for event to start, success (1+ checked-in), or failure (no one checked-in on time).\n    enum Result { WAITING, SUCCESS, FAIL }\n\n    struct Event {\n        bytes32 code;\n        string name;\n        // State - 0 to 4 enum\n        // Want to eventually compare relative location for privacy concerns.\n        // Name or location. Exact coordinates for comparison.\n        string location;\n        uint256 coordinates;\n        uint256 created;\n        uint256 date;\n        uint256 fee;\n        State state;\n        Result result;\n    }\n\n    uint totalOperatingFees;\n    Event[] public events;\n\n    mapping (uint => address[]) internal eventToAttendees;\n    mapping (uint => uint) internal eventToBalance;\n    mapping (uint => address[]) internal eventToCheckedIn;\n    mapping (uint => address) internal eventToHost;\n    mapping (uint => address[]) internal eventToInvitees;\n    mapping (uint => address[]) internal eventToPaidOut;\n    mapping (uint => address) internal eventToWinner;\n}\n\n// Need to call contract once per day at certain time to transition events to a failure, if applicable.\n// Functions on the SC need to be called somehow.\n// So, if none of the attendeees check-in on time AND none attempt to check-in after the check-in period...\n// ...will have to do this state transition manually via a call to an onlyOwner transitionFailedEvents fn.",
  "sourcePath": "/Users/griff/Desktop/pintnight/src/contracts/PintNight.sol",
  "compiler": {
    "name": "solc",
    "version": "0.8.6+commit.11564f7e.Emscripten.clang"
  },
  "schemaVersion": "3.4.1",
  "updatedAt": "2021-08-03T06:27:38.875Z",
  "devdoc": {
    "kind": "dev",
    "methods": {
      "owner()": {
        "details": "Returns the address of the current owner."
      },
      "renounceOwnership()": {
        "details": "Leaves the contract without owner. It will not be possible to call `onlyOwner` functions anymore. Can only be called by the current owner. NOTE: Renouncing ownership will leave the contract without an owner, thereby removing any functionality that is only available to the owner."
      },
      "transferOwnership(address)": {
        "details": "Transfers ownership of the contract to a new account (`newOwner`). Can only be called by the current owner."
      }
    },
    "version": 1
  },
  "userdoc": {
    "kind": "user",
    "methods": {},
    "version": 1
  }
}